{
	"contracts/Medicine.sol": {
		"Medicines": {
			"abi": [
				{
					"inputs": [
						{
							"internalType": "string",
							"name": "_name",
							"type": "string"
						},
						{
							"internalType": "string",
							"name": "_content",
							"type": "string"
						},
						{
							"internalType": "uint256",
							"name": "_id",
							"type": "uint256"
						}
					],
					"name": "add",
					"outputs": [],
					"stateMutability": "nonpayable",
					"type": "function"
				},
				{
					"inputs": [
						{
							"internalType": "uint256",
							"name": "",
							"type": "uint256"
						}
					],
					"name": "medicines",
					"outputs": [
						{
							"internalType": "uint256",
							"name": "ID",
							"type": "uint256"
						},
						{
							"internalType": "string",
							"name": "name",
							"type": "string"
						},
						{
							"internalType": "string",
							"name": "content",
							"type": "string"
						}
					],
					"stateMutability": "view",
					"type": "function"
				}
			],
			"devdoc": {
				"kind": "dev",
				"methods": {},
				"version": 1
			},
			"evm": {
				"assembly": "    /* \"contracts/Medicine.sol\":73:498  contract Medicines {\r... */\n  mstore(0x40, 0x80)\n  callvalue\n  dup1\n  iszero\n  tag_1\n  jumpi\n  0x00\n  dup1\n  revert\ntag_1:\n  pop\n  dataSize(sub_0)\n  dup1\n  dataOffset(sub_0)\n  0x00\n  codecopy\n  0x00\n  return\nstop\n\nsub_0: assembly {\n        /* \"contracts/Medicine.sol\":73:498  contract Medicines {\r... */\n      mstore(0x40, 0x80)\n      callvalue\n      dup1\n      iszero\n      tag_1\n      jumpi\n      0x00\n      dup1\n      revert\n    tag_1:\n      pop\n      jumpi(tag_2, lt(calldatasize, 0x04))\n      shr(0xe0, calldataload(0x00))\n      dup1\n      0x88abe76f\n      eq\n      tag_3\n      jumpi\n      dup1\n      0xc85e766d\n      eq\n      tag_4\n      jumpi\n    tag_2:\n      0x00\n      dup1\n      revert\n        /* \"contracts/Medicine.sol\":261:491  function add(string calldata _name, string calldata _content, uint256 _id) public {\r... */\n    tag_3:\n      tag_5\n      0x04\n      dup1\n      calldatasize\n      sub\n      dup2\n      add\n      swap1\n      tag_6\n      swap2\n      swap1\n      tag_7\n      jump\t// in\n    tag_6:\n      tag_8\n      jump\t// in\n    tag_5:\n      stop\n        /* \"contracts/Medicine.sol\":208:253  mapping(uint256 => Medicine) public medicines */\n    tag_4:\n      tag_9\n      0x04\n      dup1\n      calldatasize\n      sub\n      dup2\n      add\n      swap1\n      tag_10\n      swap2\n      swap1\n      tag_11\n      jump\t// in\n    tag_10:\n      tag_12\n      jump\t// in\n    tag_9:\n      mload(0x40)\n      tag_13\n      swap4\n      swap3\n      swap2\n      swap1\n      tag_14\n      jump\t// in\n    tag_13:\n      mload(0x40)\n      dup1\n      swap2\n      sub\n      swap1\n      return\n        /* \"contracts/Medicine.sol\":261:491  function add(string calldata _name, string calldata _content, uint256 _id) public {\r... */\n    tag_8:\n        /* \"contracts/Medicine.sol\":353:377  Medicine memory medicine */\n      tag_16\n      tag_17\n      jump\t// in\n    tag_16:\n        /* \"contracts/Medicine.sol\":403:408  _name */\n      dup6\n      dup6\n        /* \"contracts/Medicine.sol\":387:408  medicine.name = _name */\n      dup1\n      dup1\n      0x1f\n      add\n      0x20\n      dup1\n      swap2\n      div\n      mul\n      0x20\n      add\n      mload(0x40)\n      swap1\n      dup2\n      add\n      0x40\n      mstore\n      dup1\n      swap4\n      swap3\n      swap2\n      swap1\n      dup2\n      dup2\n      mstore\n      0x20\n      add\n      dup4\n      dup4\n      dup1\n      dup3\n      dup5\n      calldatacopy\n      0x00\n      dup2\n      dup5\n      add\n      mstore\n      not(0x1f)\n      0x1f\n      dup3\n      add\n      and\n      swap1\n      pop\n      dup1\n      dup4\n      add\n      swap3\n      pop\n      pop\n      pop\n      pop\n      pop\n      pop\n      pop\n        /* \"contracts/Medicine.sol\":387:395  medicine */\n      dup2\n        /* \"contracts/Medicine.sol\":387:400  medicine.name */\n      0x20\n      add\n        /* \"contracts/Medicine.sol\":387:408  medicine.name = _name */\n      dup2\n      swap1\n      mstore\n      pop\n        /* \"contracts/Medicine.sol\":437:445  _content */\n      dup4\n      dup4\n        /* \"contracts/Medicine.sol\":418:445  medicine.content = _content */\n      dup1\n      dup1\n      0x1f\n      add\n      0x20\n      dup1\n      swap2\n      div\n      mul\n      0x20\n      add\n      mload(0x40)\n      swap1\n      dup2\n      add\n      0x40\n      mstore\n      dup1\n      swap4\n      swap3\n      swap2\n      swap1\n      dup2\n      dup2\n      mstore\n      0x20\n      add\n      dup4\n      dup4\n      dup1\n      dup3\n      dup5\n      calldatacopy\n      0x00\n      dup2\n      dup5\n      add\n      mstore\n      not(0x1f)\n      0x1f\n      dup3\n      add\n      and\n      swap1\n      pop\n      dup1\n      dup4\n      add\n      swap3\n      pop\n      pop\n      pop\n      pop\n      pop\n      pop\n      pop\n        /* \"contracts/Medicine.sol\":418:426  medicine */\n      dup2\n        /* \"contracts/Medicine.sol\":418:434  medicine.content */\n      0x40\n      add\n        /* \"contracts/Medicine.sol\":418:445  medicine.content = _content */\n      dup2\n      swap1\n      mstore\n      pop\n        /* \"contracts/Medicine.sol\":474:482  medicine */\n      dup1\n        /* \"contracts/Medicine.sol\":457:466  medicines */\n      0x00\n        /* \"contracts/Medicine.sol\":457:471  medicines[_id] */\n      dup1\n        /* \"contracts/Medicine.sol\":467:470  _id */\n      dup5\n        /* \"contracts/Medicine.sol\":457:471  medicines[_id] */\n      dup2\n      mstore\n      0x20\n      add\n      swap1\n      dup2\n      mstore\n      0x20\n      add\n      0x00\n      keccak256\n        /* \"contracts/Medicine.sol\":457:482  medicines[_id] = medicine */\n      0x00\n      dup3\n      add\n      mload\n      dup2\n      0x00\n      add\n      sstore\n      0x20\n      dup3\n      add\n      mload\n      dup2\n      0x01\n      add\n      swap1\n      dup1\n      mload\n      swap1\n      0x20\n      add\n      swap1\n      tag_18\n      swap3\n      swap2\n      swap1\n      tag_19\n      jump\t// in\n    tag_18:\n      pop\n      0x40\n      dup3\n      add\n      mload\n      dup2\n      0x02\n      add\n      swap1\n      dup1\n      mload\n      swap1\n      0x20\n      add\n      swap1\n      tag_20\n      swap3\n      swap2\n      swap1\n      tag_19\n      jump\t// in\n    tag_20:\n      pop\n      swap1\n      pop\n      pop\n        /* \"contracts/Medicine.sol\":343:491  {\r... */\n      pop\n        /* \"contracts/Medicine.sol\":261:491  function add(string calldata _name, string calldata _content, uint256 _id) public {\r... */\n      pop\n      pop\n      pop\n      pop\n      pop\n      jump\t// out\n        /* \"contracts/Medicine.sol\":208:253  mapping(uint256 => Medicine) public medicines */\n    tag_12:\n      mstore(0x20, 0x00)\n      dup1\n      0x00\n      mstore\n      keccak256(0x00, 0x40)\n      0x00\n      swap2\n      pop\n      swap1\n      pop\n      dup1\n      0x00\n      add\n      sload\n      swap1\n      dup1\n      0x01\n      add\n      dup1\n      sload\n      tag_21\n      swap1\n      tag_22\n      jump\t// in\n    tag_21:\n      dup1\n      0x1f\n      add\n      0x20\n      dup1\n      swap2\n      div\n      mul\n      0x20\n      add\n      mload(0x40)\n      swap1\n      dup2\n      add\n      0x40\n      mstore\n      dup1\n      swap3\n      swap2\n      swap1\n      dup2\n      dup2\n      mstore\n      0x20\n      add\n      dup3\n      dup1\n      sload\n      tag_23\n      swap1\n      tag_22\n      jump\t// in\n    tag_23:\n      dup1\n      iszero\n      tag_24\n      jumpi\n      dup1\n      0x1f\n      lt\n      tag_25\n      jumpi\n      0x0100\n      dup1\n      dup4\n      sload\n      div\n      mul\n      dup4\n      mstore\n      swap2\n      0x20\n      add\n      swap2\n      jump(tag_24)\n    tag_25:\n      dup3\n      add\n      swap2\n      swap1\n      0x00\n      mstore\n      keccak256(0x00, 0x20)\n      swap1\n    tag_26:\n      dup2\n      sload\n      dup2\n      mstore\n      swap1\n      0x01\n      add\n      swap1\n      0x20\n      add\n      dup1\n      dup4\n      gt\n      tag_26\n      jumpi\n      dup3\n      swap1\n      sub\n      0x1f\n      and\n      dup3\n      add\n      swap2\n    tag_24:\n      pop\n      pop\n      pop\n      pop\n      pop\n      swap1\n      dup1\n      0x02\n      add\n      dup1\n      sload\n      tag_27\n      swap1\n      tag_22\n      jump\t// in\n    tag_27:\n      dup1\n      0x1f\n      add\n      0x20\n      dup1\n      swap2\n      div\n      mul\n      0x20\n      add\n      mload(0x40)\n      swap1\n      dup2\n      add\n      0x40\n      mstore\n      dup1\n      swap3\n      swap2\n      swap1\n      dup2\n      dup2\n      mstore\n      0x20\n      add\n      dup3\n      dup1\n      sload\n      tag_28\n      swap1\n      tag_22\n      jump\t// in\n    tag_28:\n      dup1\n      iszero\n      tag_29\n      jumpi\n      dup1\n      0x1f\n      lt\n      tag_30\n      jumpi\n      0x0100\n      dup1\n      dup4\n      sload\n      div\n      mul\n      dup4\n      mstore\n      swap2\n      0x20\n      add\n      swap2\n      jump(tag_29)\n    tag_30:\n      dup3\n      add\n      swap2\n      swap1\n      0x00\n      mstore\n      keccak256(0x00, 0x20)\n      swap1\n    tag_31:\n      dup2\n      sload\n      dup2\n      mstore\n      swap1\n      0x01\n      add\n      swap1\n      0x20\n      add\n      dup1\n      dup4\n      gt\n      tag_31\n      jumpi\n      dup3\n      swap1\n      sub\n      0x1f\n      and\n      dup3\n      add\n      swap2\n    tag_29:\n      pop\n      pop\n      pop\n      pop\n      pop\n      swap1\n      pop\n      dup4\n      jump\t// out\n    tag_17:\n      mload(0x40)\n      dup1\n      0x60\n      add\n      0x40\n      mstore\n      dup1\n      0x00\n      dup2\n      mstore\n      0x20\n      add\n      0x60\n      dup2\n      mstore\n      0x20\n      add\n      0x60\n      dup2\n      mstore\n      pop\n      swap1\n      jump\t// out\n    tag_19:\n      dup3\n      dup1\n      sload\n      tag_32\n      swap1\n      tag_22\n      jump\t// in\n    tag_32:\n      swap1\n      0x00\n      mstore\n      keccak256(0x00, 0x20)\n      swap1\n      0x1f\n      add\n      0x20\n      swap1\n      div\n      dup2\n      add\n      swap3\n      dup3\n      tag_34\n      jumpi\n      0x00\n      dup6\n      sstore\n      jump(tag_33)\n    tag_34:\n      dup3\n      0x1f\n      lt\n      tag_35\n      jumpi\n      dup1\n      mload\n      not(0xff)\n      and\n      dup4\n      dup1\n      add\n      or\n      dup6\n      sstore\n      jump(tag_33)\n    tag_35:\n      dup3\n      dup1\n      add\n      0x01\n      add\n      dup6\n      sstore\n      dup3\n      iszero\n      tag_33\n      jumpi\n      swap2\n      dup3\n      add\n    tag_36:\n      dup3\n      dup2\n      gt\n      iszero\n      tag_37\n      jumpi\n      dup3\n      mload\n      dup3\n      sstore\n      swap2\n      0x20\n      add\n      swap2\n      swap1\n      0x01\n      add\n      swap1\n      jump(tag_36)\n    tag_37:\n    tag_33:\n      pop\n      swap1\n      pop\n      tag_38\n      swap2\n      swap1\n      tag_39\n      jump\t// in\n    tag_38:\n      pop\n      swap1\n      jump\t// out\n    tag_39:\n    tag_40:\n      dup1\n      dup3\n      gt\n      iszero\n      tag_41\n      jumpi\n      0x00\n      dup2\n      0x00\n      swap1\n      sstore\n      pop\n      0x01\n      add\n      jump(tag_40)\n    tag_41:\n      pop\n      swap1\n      jump\t// out\n        /* \"#utility.yul\":21:574   */\n    tag_43:\n        /* \"#utility.yul\":79:87   */\n      0x00\n        /* \"#utility.yul\":89:95   */\n      dup1\n        /* \"#utility.yul\":139:142   */\n      dup4\n        /* \"#utility.yul\":132:136   */\n      0x1f\n        /* \"#utility.yul\":124:130   */\n      dup5\n        /* \"#utility.yul\":120:137   */\n      add\n        /* \"#utility.yul\":116:143   */\n      slt\n        /* \"#utility.yul\":106:228   */\n      tag_45\n      jumpi\n        /* \"#utility.yul\":147:226   */\n      tag_46\n      tag_47\n      jump\t// in\n    tag_46:\n        /* \"#utility.yul\":106:228   */\n    tag_45:\n        /* \"#utility.yul\":260:266   */\n      dup3\n        /* \"#utility.yul\":247:267   */\n      calldataload\n        /* \"#utility.yul\":237:267   */\n      swap1\n      pop\n        /* \"#utility.yul\":290:308   */\n      0xffffffffffffffff\n        /* \"#utility.yul\":282:288   */\n      dup2\n        /* \"#utility.yul\":279:309   */\n      gt\n        /* \"#utility.yul\":276:393   */\n      iszero\n      tag_48\n      jumpi\n        /* \"#utility.yul\":312:391   */\n      tag_49\n      tag_50\n      jump\t// in\n    tag_49:\n        /* \"#utility.yul\":276:393   */\n    tag_48:\n        /* \"#utility.yul\":426:430   */\n      0x20\n        /* \"#utility.yul\":418:424   */\n      dup4\n        /* \"#utility.yul\":414:431   */\n      add\n        /* \"#utility.yul\":402:431   */\n      swap2\n      pop\n        /* \"#utility.yul\":480:483   */\n      dup4\n        /* \"#utility.yul\":472:476   */\n      0x01\n        /* \"#utility.yul\":464:470   */\n      dup3\n        /* \"#utility.yul\":460:477   */\n      mul\n        /* \"#utility.yul\":450:458   */\n      dup4\n        /* \"#utility.yul\":446:478   */\n      add\n        /* \"#utility.yul\":443:484   */\n      gt\n        /* \"#utility.yul\":440:568   */\n      iszero\n      tag_51\n      jumpi\n        /* \"#utility.yul\":487:566   */\n      tag_52\n      tag_53\n      jump\t// in\n    tag_52:\n        /* \"#utility.yul\":440:568   */\n    tag_51:\n        /* \"#utility.yul\":21:574   */\n      swap3\n      pop\n      swap3\n      swap1\n      pop\n      jump\t// out\n        /* \"#utility.yul\":580:719   */\n    tag_54:\n        /* \"#utility.yul\":626:631   */\n      0x00\n        /* \"#utility.yul\":664:670   */\n      dup2\n        /* \"#utility.yul\":651:671   */\n      calldataload\n        /* \"#utility.yul\":642:671   */\n      swap1\n      pop\n        /* \"#utility.yul\":680:713   */\n      tag_56\n        /* \"#utility.yul\":707:712   */\n      dup2\n        /* \"#utility.yul\":680:713   */\n      tag_57\n      jump\t// in\n    tag_56:\n        /* \"#utility.yul\":580:719   */\n      swap3\n      swap2\n      pop\n      pop\n      jump\t// out\n        /* \"#utility.yul\":725:1744   */\n    tag_7:\n        /* \"#utility.yul\":826:832   */\n      0x00\n        /* \"#utility.yul\":834:840   */\n      dup1\n        /* \"#utility.yul\":842:848   */\n      0x00\n        /* \"#utility.yul\":850:856   */\n      dup1\n        /* \"#utility.yul\":858:864   */\n      0x00\n        /* \"#utility.yul\":907:909   */\n      0x60\n        /* \"#utility.yul\":895:904   */\n      dup7\n        /* \"#utility.yul\":886:893   */\n      dup9\n        /* \"#utility.yul\":882:905   */\n      sub\n        /* \"#utility.yul\":878:910   */\n      slt\n        /* \"#utility.yul\":875:994   */\n      iszero\n      tag_59\n      jumpi\n        /* \"#utility.yul\":913:992   */\n      tag_60\n      tag_61\n      jump\t// in\n    tag_60:\n        /* \"#utility.yul\":875:994   */\n    tag_59:\n        /* \"#utility.yul\":1061:1062   */\n      0x00\n        /* \"#utility.yul\":1050:1059   */\n      dup7\n        /* \"#utility.yul\":1046:1063   */\n      add\n        /* \"#utility.yul\":1033:1064   */\n      calldataload\n        /* \"#utility.yul\":1091:1109   */\n      0xffffffffffffffff\n        /* \"#utility.yul\":1083:1089   */\n      dup2\n        /* \"#utility.yul\":1080:1110   */\n      gt\n        /* \"#utility.yul\":1077:1194   */\n      iszero\n      tag_62\n      jumpi\n        /* \"#utility.yul\":1113:1192   */\n      tag_63\n      tag_64\n      jump\t// in\n    tag_63:\n        /* \"#utility.yul\":1077:1194   */\n    tag_62:\n        /* \"#utility.yul\":1226:1291   */\n      tag_65\n        /* \"#utility.yul\":1283:1290   */\n      dup9\n        /* \"#utility.yul\":1274:1280   */\n      dup3\n        /* \"#utility.yul\":1263:1272   */\n      dup10\n        /* \"#utility.yul\":1259:1281   */\n      add\n        /* \"#utility.yul\":1226:1291   */\n      tag_43\n      jump\t// in\n    tag_65:\n        /* \"#utility.yul\":1208:1291   */\n      swap6\n      pop\n      swap6\n      pop\n        /* \"#utility.yul\":1004:1301   */\n      pop\n        /* \"#utility.yul\":1368:1370   */\n      0x20\n        /* \"#utility.yul\":1357:1366   */\n      dup7\n        /* \"#utility.yul\":1353:1371   */\n      add\n        /* \"#utility.yul\":1340:1372   */\n      calldataload\n        /* \"#utility.yul\":1399:1417   */\n      0xffffffffffffffff\n        /* \"#utility.yul\":1391:1397   */\n      dup2\n        /* \"#utility.yul\":1388:1418   */\n      gt\n        /* \"#utility.yul\":1385:1502   */\n      iszero\n      tag_66\n      jumpi\n        /* \"#utility.yul\":1421:1500   */\n      tag_67\n      tag_64\n      jump\t// in\n    tag_67:\n        /* \"#utility.yul\":1385:1502   */\n    tag_66:\n        /* \"#utility.yul\":1534:1599   */\n      tag_68\n        /* \"#utility.yul\":1591:1598   */\n      dup9\n        /* \"#utility.yul\":1582:1588   */\n      dup3\n        /* \"#utility.yul\":1571:1580   */\n      dup10\n        /* \"#utility.yul\":1567:1589   */\n      add\n        /* \"#utility.yul\":1534:1599   */\n      tag_43\n      jump\t// in\n    tag_68:\n        /* \"#utility.yul\":1516:1599   */\n      swap4\n      pop\n      swap4\n      pop\n        /* \"#utility.yul\":1311:1609   */\n      pop\n        /* \"#utility.yul\":1648:1650   */\n      0x40\n        /* \"#utility.yul\":1674:1727   */\n      tag_69\n        /* \"#utility.yul\":1719:1726   */\n      dup9\n        /* \"#utility.yul\":1710:1716   */\n      dup3\n        /* \"#utility.yul\":1699:1708   */\n      dup10\n        /* \"#utility.yul\":1695:1717   */\n      add\n        /* \"#utility.yul\":1674:1727   */\n      tag_54\n      jump\t// in\n    tag_69:\n        /* \"#utility.yul\":1664:1727   */\n      swap2\n      pop\n        /* \"#utility.yul\":1619:1737   */\n      pop\n        /* \"#utility.yul\":725:1744   */\n      swap3\n      swap6\n      pop\n      swap3\n      swap6\n      swap1\n      swap4\n      pop\n      jump\t// out\n        /* \"#utility.yul\":1750:2079   */\n    tag_11:\n        /* \"#utility.yul\":1809:1815   */\n      0x00\n        /* \"#utility.yul\":1858:1860   */\n      0x20\n        /* \"#utility.yul\":1846:1855   */\n      dup3\n        /* \"#utility.yul\":1837:1844   */\n      dup5\n        /* \"#utility.yul\":1833:1856   */\n      sub\n        /* \"#utility.yul\":1829:1861   */\n      slt\n        /* \"#utility.yul\":1826:1945   */\n      iszero\n      tag_71\n      jumpi\n        /* \"#utility.yul\":1864:1943   */\n      tag_72\n      tag_61\n      jump\t// in\n    tag_72:\n        /* \"#utility.yul\":1826:1945   */\n    tag_71:\n        /* \"#utility.yul\":1984:1985   */\n      0x00\n        /* \"#utility.yul\":2009:2062   */\n      tag_73\n        /* \"#utility.yul\":2054:2061   */\n      dup5\n        /* \"#utility.yul\":2045:2051   */\n      dup3\n        /* \"#utility.yul\":2034:2043   */\n      dup6\n        /* \"#utility.yul\":2030:2052   */\n      add\n        /* \"#utility.yul\":2009:2062   */\n      tag_54\n      jump\t// in\n    tag_73:\n        /* \"#utility.yul\":1999:2062   */\n      swap2\n      pop\n        /* \"#utility.yul\":1955:2072   */\n      pop\n        /* \"#utility.yul\":1750:2079   */\n      swap3\n      swap2\n      pop\n      pop\n      jump\t// out\n        /* \"#utility.yul\":2085:2449   */\n    tag_74:\n        /* \"#utility.yul\":2173:2176   */\n      0x00\n        /* \"#utility.yul\":2201:2240   */\n      tag_76\n        /* \"#utility.yul\":2234:2239   */\n      dup3\n        /* \"#utility.yul\":2201:2240   */\n      tag_77\n      jump\t// in\n    tag_76:\n        /* \"#utility.yul\":2256:2327   */\n      tag_78\n        /* \"#utility.yul\":2320:2326   */\n      dup2\n        /* \"#utility.yul\":2315:2318   */\n      dup6\n        /* \"#utility.yul\":2256:2327   */\n      tag_79\n      jump\t// in\n    tag_78:\n        /* \"#utility.yul\":2249:2327   */\n      swap4\n      pop\n        /* \"#utility.yul\":2336:2388   */\n      tag_80\n        /* \"#utility.yul\":2381:2387   */\n      dup2\n        /* \"#utility.yul\":2376:2379   */\n      dup6\n        /* \"#utility.yul\":2369:2373   */\n      0x20\n        /* \"#utility.yul\":2362:2367   */\n      dup7\n        /* \"#utility.yul\":2358:2374   */\n      add\n        /* \"#utility.yul\":2336:2388   */\n      tag_81\n      jump\t// in\n    tag_80:\n        /* \"#utility.yul\":2413:2442   */\n      tag_82\n        /* \"#utility.yul\":2435:2441   */\n      dup2\n        /* \"#utility.yul\":2413:2442   */\n      tag_83\n      jump\t// in\n    tag_82:\n        /* \"#utility.yul\":2408:2411   */\n      dup5\n        /* \"#utility.yul\":2404:2443   */\n      add\n        /* \"#utility.yul\":2397:2443   */\n      swap2\n      pop\n        /* \"#utility.yul\":2177:2449   */\n      pop\n        /* \"#utility.yul\":2085:2449   */\n      swap3\n      swap2\n      pop\n      pop\n      jump\t// out\n        /* \"#utility.yul\":2455:2573   */\n    tag_84:\n        /* \"#utility.yul\":2542:2566   */\n      tag_86\n        /* \"#utility.yul\":2560:2565   */\n      dup2\n        /* \"#utility.yul\":2542:2566   */\n      tag_87\n      jump\t// in\n    tag_86:\n        /* \"#utility.yul\":2537:2540   */\n      dup3\n        /* \"#utility.yul\":2530:2567   */\n      mstore\n        /* \"#utility.yul\":2455:2573   */\n      pop\n      pop\n      jump\t// out\n        /* \"#utility.yul\":2579:3203   */\n    tag_14:\n        /* \"#utility.yul\":2768:2772   */\n      0x00\n        /* \"#utility.yul\":2806:2808   */\n      0x60\n        /* \"#utility.yul\":2795:2804   */\n      dup3\n        /* \"#utility.yul\":2791:2809   */\n      add\n        /* \"#utility.yul\":2783:2809   */\n      swap1\n      pop\n        /* \"#utility.yul\":2819:2890   */\n      tag_89\n        /* \"#utility.yul\":2887:2888   */\n      0x00\n        /* \"#utility.yul\":2876:2885   */\n      dup4\n        /* \"#utility.yul\":2872:2889   */\n      add\n        /* \"#utility.yul\":2863:2869   */\n      dup7\n        /* \"#utility.yul\":2819:2890   */\n      tag_84\n      jump\t// in\n    tag_89:\n        /* \"#utility.yul\":2937:2946   */\n      dup2\n        /* \"#utility.yul\":2931:2935   */\n      dup2\n        /* \"#utility.yul\":2927:2947   */\n      sub\n        /* \"#utility.yul\":2922:2924   */\n      0x20\n        /* \"#utility.yul\":2911:2920   */\n      dup4\n        /* \"#utility.yul\":2907:2925   */\n      add\n        /* \"#utility.yul\":2900:2948   */\n      mstore\n        /* \"#utility.yul\":2965:3043   */\n      tag_90\n        /* \"#utility.yul\":3038:3042   */\n      dup2\n        /* \"#utility.yul\":3029:3035   */\n      dup6\n        /* \"#utility.yul\":2965:3043   */\n      tag_74\n      jump\t// in\n    tag_90:\n        /* \"#utility.yul\":2957:3043   */\n      swap1\n      pop\n        /* \"#utility.yul\":3090:3099   */\n      dup2\n        /* \"#utility.yul\":3084:3088   */\n      dup2\n        /* \"#utility.yul\":3080:3100   */\n      sub\n        /* \"#utility.yul\":3075:3077   */\n      0x40\n        /* \"#utility.yul\":3064:3073   */\n      dup4\n        /* \"#utility.yul\":3060:3078   */\n      add\n        /* \"#utility.yul\":3053:3101   */\n      mstore\n        /* \"#utility.yul\":3118:3196   */\n      tag_91\n        /* \"#utility.yul\":3191:3195   */\n      dup2\n        /* \"#utility.yul\":3182:3188   */\n      dup5\n        /* \"#utility.yul\":3118:3196   */\n      tag_74\n      jump\t// in\n    tag_91:\n        /* \"#utility.yul\":3110:3196   */\n      swap1\n      pop\n        /* \"#utility.yul\":2579:3203   */\n      swap5\n      swap4\n      pop\n      pop\n      pop\n      pop\n      jump\t// out\n        /* \"#utility.yul\":3290:3389   */\n    tag_77:\n        /* \"#utility.yul\":3342:3348   */\n      0x00\n        /* \"#utility.yul\":3376:3381   */\n      dup2\n        /* \"#utility.yul\":3370:3382   */\n      mload\n        /* \"#utility.yul\":3360:3382   */\n      swap1\n      pop\n        /* \"#utility.yul\":3290:3389   */\n      swap2\n      swap1\n      pop\n      jump\t// out\n        /* \"#utility.yul\":3395:3564   */\n    tag_79:\n        /* \"#utility.yul\":3479:3490   */\n      0x00\n        /* \"#utility.yul\":3513:3519   */\n      dup3\n        /* \"#utility.yul\":3508:3511   */\n      dup3\n        /* \"#utility.yul\":3501:3520   */\n      mstore\n        /* \"#utility.yul\":3553:3557   */\n      0x20\n        /* \"#utility.yul\":3548:3551   */\n      dup3\n        /* \"#utility.yul\":3544:3558   */\n      add\n        /* \"#utility.yul\":3529:3558   */\n      swap1\n      pop\n        /* \"#utility.yul\":3395:3564   */\n      swap3\n      swap2\n      pop\n      pop\n      jump\t// out\n        /* \"#utility.yul\":3570:3647   */\n    tag_87:\n        /* \"#utility.yul\":3607:3614   */\n      0x00\n        /* \"#utility.yul\":3636:3641   */\n      dup2\n        /* \"#utility.yul\":3625:3641   */\n      swap1\n      pop\n        /* \"#utility.yul\":3570:3647   */\n      swap2\n      swap1\n      pop\n      jump\t// out\n        /* \"#utility.yul\":3653:3960   */\n    tag_81:\n        /* \"#utility.yul\":3721:3722   */\n      0x00\n        /* \"#utility.yul\":3731:3844   */\n    tag_98:\n        /* \"#utility.yul\":3745:3751   */\n      dup4\n        /* \"#utility.yul\":3742:3743   */\n      dup2\n        /* \"#utility.yul\":3739:3752   */\n      lt\n        /* \"#utility.yul\":3731:3844   */\n      iszero\n      tag_100\n      jumpi\n        /* \"#utility.yul\":3830:3831   */\n      dup1\n        /* \"#utility.yul\":3825:3828   */\n      dup3\n        /* \"#utility.yul\":3821:3832   */\n      add\n        /* \"#utility.yul\":3815:3833   */\n      mload\n        /* \"#utility.yul\":3811:3812   */\n      dup2\n        /* \"#utility.yul\":3806:3809   */\n      dup5\n        /* \"#utility.yul\":3802:3813   */\n      add\n        /* \"#utility.yul\":3795:3834   */\n      mstore\n        /* \"#utility.yul\":3767:3769   */\n      0x20\n        /* \"#utility.yul\":3764:3765   */\n      dup2\n        /* \"#utility.yul\":3760:3770   */\n      add\n        /* \"#utility.yul\":3755:3770   */\n      swap1\n      pop\n        /* \"#utility.yul\":3731:3844   */\n      jump(tag_98)\n    tag_100:\n        /* \"#utility.yul\":3862:3868   */\n      dup4\n        /* \"#utility.yul\":3859:3860   */\n      dup2\n        /* \"#utility.yul\":3856:3869   */\n      gt\n        /* \"#utility.yul\":3853:3954   */\n      iszero\n      tag_101\n      jumpi\n        /* \"#utility.yul\":3942:3943   */\n      0x00\n        /* \"#utility.yul\":3933:3939   */\n      dup5\n        /* \"#utility.yul\":3928:3931   */\n      dup5\n        /* \"#utility.yul\":3924:3940   */\n      add\n        /* \"#utility.yul\":3917:3944   */\n      mstore\n        /* \"#utility.yul\":3853:3954   */\n    tag_101:\n        /* \"#utility.yul\":3702:3960   */\n      pop\n        /* \"#utility.yul\":3653:3960   */\n      pop\n      pop\n      pop\n      jump\t// out\n        /* \"#utility.yul\":3966:4286   */\n    tag_22:\n        /* \"#utility.yul\":4010:4016   */\n      0x00\n        /* \"#utility.yul\":4047:4048   */\n      0x02\n        /* \"#utility.yul\":4041:4045   */\n      dup3\n        /* \"#utility.yul\":4037:4049   */\n      div\n        /* \"#utility.yul\":4027:4049   */\n      swap1\n      pop\n        /* \"#utility.yul\":4094:4095   */\n      0x01\n        /* \"#utility.yul\":4088:4092   */\n      dup3\n        /* \"#utility.yul\":4084:4096   */\n      and\n        /* \"#utility.yul\":4115:4133   */\n      dup1\n        /* \"#utility.yul\":4105:4186   */\n      tag_103\n      jumpi\n        /* \"#utility.yul\":4171:4175   */\n      0x7f\n        /* \"#utility.yul\":4163:4169   */\n      dup3\n        /* \"#utility.yul\":4159:4176   */\n      and\n        /* \"#utility.yul\":4149:4176   */\n      swap2\n      pop\n        /* \"#utility.yul\":4105:4186   */\n    tag_103:\n        /* \"#utility.yul\":4233:4235   */\n      0x20\n        /* \"#utility.yul\":4225:4231   */\n      dup3\n        /* \"#utility.yul\":4222:4236   */\n      lt\n        /* \"#utility.yul\":4202:4220   */\n      dup2\n        /* \"#utility.yul\":4199:4237   */\n      eq\n        /* \"#utility.yul\":4196:4280   */\n      iszero\n      tag_104\n      jumpi\n        /* \"#utility.yul\":4252:4270   */\n      tag_105\n      tag_106\n      jump\t// in\n    tag_105:\n        /* \"#utility.yul\":4196:4280   */\n    tag_104:\n        /* \"#utility.yul\":4017:4286   */\n      pop\n        /* \"#utility.yul\":3966:4286   */\n      swap2\n      swap1\n      pop\n      jump\t// out\n        /* \"#utility.yul\":4292:4472   */\n    tag_106:\n        /* \"#utility.yul\":4340:4417   */\n      0x4e487b7100000000000000000000000000000000000000000000000000000000\n        /* \"#utility.yul\":4337:4338   */\n      0x00\n        /* \"#utility.yul\":4330:4418   */\n      mstore\n        /* \"#utility.yul\":4437:4441   */\n      0x22\n        /* \"#utility.yul\":4434:4435   */\n      0x04\n        /* \"#utility.yul\":4427:4442   */\n      mstore\n        /* \"#utility.yul\":4461:4465   */\n      0x24\n        /* \"#utility.yul\":4458:4459   */\n      0x00\n        /* \"#utility.yul\":4451:4466   */\n      revert\n        /* \"#utility.yul\":4478:4595   */\n    tag_50:\n        /* \"#utility.yul\":4587:4588   */\n      0x00\n        /* \"#utility.yul\":4584:4585   */\n      dup1\n        /* \"#utility.yul\":4577:4589   */\n      revert\n        /* \"#utility.yul\":4601:4718   */\n    tag_47:\n        /* \"#utility.yul\":4710:4711   */\n      0x00\n        /* \"#utility.yul\":4707:4708   */\n      dup1\n        /* \"#utility.yul\":4700:4712   */\n      revert\n        /* \"#utility.yul\":4724:4841   */\n    tag_53:\n        /* \"#utility.yul\":4833:4834   */\n      0x00\n        /* \"#utility.yul\":4830:4831   */\n      dup1\n        /* \"#utility.yul\":4823:4835   */\n      revert\n        /* \"#utility.yul\":4847:4964   */\n    tag_64:\n        /* \"#utility.yul\":4956:4957   */\n      0x00\n        /* \"#utility.yul\":4953:4954   */\n      dup1\n        /* \"#utility.yul\":4946:4958   */\n      revert\n        /* \"#utility.yul\":4970:5087   */\n    tag_61:\n        /* \"#utility.yul\":5079:5080   */\n      0x00\n        /* \"#utility.yul\":5076:5077   */\n      dup1\n        /* \"#utility.yul\":5069:5081   */\n      revert\n        /* \"#utility.yul\":5093:5195   */\n    tag_83:\n        /* \"#utility.yul\":5134:5140   */\n      0x00\n        /* \"#utility.yul\":5185:5187   */\n      0x1f\n        /* \"#utility.yul\":5181:5188   */\n      not\n        /* \"#utility.yul\":5176:5178   */\n      0x1f\n        /* \"#utility.yul\":5169:5174   */\n      dup4\n        /* \"#utility.yul\":5165:5179   */\n      add\n        /* \"#utility.yul\":5161:5189   */\n      and\n        /* \"#utility.yul\":5151:5189   */\n      swap1\n      pop\n        /* \"#utility.yul\":5093:5195   */\n      swap2\n      swap1\n      pop\n      jump\t// out\n        /* \"#utility.yul\":5201:5323   */\n    tag_57:\n        /* \"#utility.yul\":5274:5298   */\n      tag_115\n        /* \"#utility.yul\":5292:5297   */\n      dup2\n        /* \"#utility.yul\":5274:5298   */\n      tag_87\n      jump\t// in\n    tag_115:\n        /* \"#utility.yul\":5267:5272   */\n      dup2\n        /* \"#utility.yul\":5264:5299   */\n      eq\n        /* \"#utility.yul\":5254:5317   */\n      tag_116\n      jumpi\n        /* \"#utility.yul\":5313:5314   */\n      0x00\n        /* \"#utility.yul\":5310:5311   */\n      dup1\n        /* \"#utility.yul\":5303:5315   */\n      revert\n        /* \"#utility.yul\":5254:5317   */\n    tag_116:\n        /* \"#utility.yul\":5201:5323   */\n      pop\n      jump\t// out\n\n    auxdata: 0xa26469706673582212200fd29c74b377a417b29fb4e209683b2d778e9d307a63eb20dd3f28d94ce4e81764736f6c63430008070033\n}\n",
				"bytecode": {
					"linkReferences": {},
					"object": "608060405234801561001057600080fd5b50610676806100206000396000f3fe608060405234801561001057600080fd5b50600436106100365760003560e01c806388abe76f1461003b578063c85e766d14610057575b600080fd5b610055600480360381019061005091906103f6565b610089565b005b610071600480360381019061006c919061048b565b61018d565b60405161008093929190610500565b60405180910390f35b6100916102c7565b85858080601f016020809104026020016040519081016040528093929190818152602001838380828437600081840152601f19601f82011690508083019250505050505050816020018190525083838080601f016020809104026020016040519081016040528093929190818152602001838380828437600081840152601f19601f820116905080830192505050505050508160400181905250806000808481526020019081526020016000206000820151816000015560208201518160010190805190602001906101649291906102e8565b5060408201518160020190805190602001906101819291906102e8565b50905050505050505050565b60006020528060005260406000206000915090508060000154908060010180546101b69061059e565b80601f01602080910402602001604051908101604052809291908181526020018280546101e29061059e565b801561022f5780601f106102045761010080835404028352916020019161022f565b820191906000526020600020905b81548152906001019060200180831161021257829003601f168201915b5050505050908060020180546102449061059e565b80601f01602080910402602001604051908101604052809291908181526020018280546102709061059e565b80156102bd5780601f10610292576101008083540402835291602001916102bd565b820191906000526020600020905b8154815290600101906020018083116102a057829003601f168201915b5050505050905083565b60405180606001604052806000815260200160608152602001606081525090565b8280546102f49061059e565b90600052602060002090601f016020900481019282610316576000855561035d565b82601f1061032f57805160ff191683800117855561035d565b8280016001018555821561035d579182015b8281111561035c578251825591602001919060010190610341565b5b50905061036a919061036e565b5090565b5b8082111561038757600081600090555060010161036f565b5090565b60008083601f8401126103a1576103a0610604565b5b8235905067ffffffffffffffff8111156103be576103bd6105ff565b5b6020830191508360018202830111156103da576103d9610609565b5b9250929050565b6000813590506103f081610629565b92915050565b60008060008060006060868803121561041257610411610613565b5b600086013567ffffffffffffffff8111156104305761042f61060e565b5b61043c8882890161038b565b9550955050602086013567ffffffffffffffff81111561045f5761045e61060e565b5b61046b8882890161038b565b9350935050604061047e888289016103e1565b9150509295509295909350565b6000602082840312156104a1576104a0610613565b5b60006104af848285016103e1565b91505092915050565b60006104c382610545565b6104cd8185610550565b93506104dd81856020860161056b565b6104e681610618565b840191505092915050565b6104fa81610561565b82525050565b600060608201905061051560008301866104f1565b818103602083015261052781856104b8565b9050818103604083015261053b81846104b8565b9050949350505050565b600081519050919050565b600082825260208201905092915050565b6000819050919050565b60005b8381101561058957808201518184015260208101905061056e565b83811115610598576000848401525b50505050565b600060028204905060018216806105b657607f821691505b602082108114156105ca576105c96105d0565b5b50919050565b7f4e487b7100000000000000000000000000000000000000000000000000000000600052602260045260246000fd5b600080fd5b600080fd5b600080fd5b600080fd5b600080fd5b6000601f19601f8301169050919050565b61063281610561565b811461063d57600080fd5b5056fea26469706673582212200fd29c74b377a417b29fb4e209683b2d778e9d307a63eb20dd3f28d94ce4e81764736f6c63430008070033",
					"opcodes": "PUSH1 0x80 PUSH1 0x40 MSTORE CALLVALUE DUP1 ISZERO PUSH2 0x10 JUMPI PUSH1 0x0 DUP1 REVERT JUMPDEST POP PUSH2 0x676 DUP1 PUSH2 0x20 PUSH1 0x0 CODECOPY PUSH1 0x0 RETURN INVALID PUSH1 0x80 PUSH1 0x40 MSTORE CALLVALUE DUP1 ISZERO PUSH2 0x10 JUMPI PUSH1 0x0 DUP1 REVERT JUMPDEST POP PUSH1 0x4 CALLDATASIZE LT PUSH2 0x36 JUMPI PUSH1 0x0 CALLDATALOAD PUSH1 0xE0 SHR DUP1 PUSH4 0x88ABE76F EQ PUSH2 0x3B JUMPI DUP1 PUSH4 0xC85E766D EQ PUSH2 0x57 JUMPI JUMPDEST PUSH1 0x0 DUP1 REVERT JUMPDEST PUSH2 0x55 PUSH1 0x4 DUP1 CALLDATASIZE SUB DUP2 ADD SWAP1 PUSH2 0x50 SWAP2 SWAP1 PUSH2 0x3F6 JUMP JUMPDEST PUSH2 0x89 JUMP JUMPDEST STOP JUMPDEST PUSH2 0x71 PUSH1 0x4 DUP1 CALLDATASIZE SUB DUP2 ADD SWAP1 PUSH2 0x6C SWAP2 SWAP1 PUSH2 0x48B JUMP JUMPDEST PUSH2 0x18D JUMP JUMPDEST PUSH1 0x40 MLOAD PUSH2 0x80 SWAP4 SWAP3 SWAP2 SWAP1 PUSH2 0x500 JUMP JUMPDEST PUSH1 0x40 MLOAD DUP1 SWAP2 SUB SWAP1 RETURN JUMPDEST PUSH2 0x91 PUSH2 0x2C7 JUMP JUMPDEST DUP6 DUP6 DUP1 DUP1 PUSH1 0x1F ADD PUSH1 0x20 DUP1 SWAP2 DIV MUL PUSH1 0x20 ADD PUSH1 0x40 MLOAD SWAP1 DUP2 ADD PUSH1 0x40 MSTORE DUP1 SWAP4 SWAP3 SWAP2 SWAP1 DUP2 DUP2 MSTORE PUSH1 0x20 ADD DUP4 DUP4 DUP1 DUP3 DUP5 CALLDATACOPY PUSH1 0x0 DUP2 DUP5 ADD MSTORE PUSH1 0x1F NOT PUSH1 0x1F DUP3 ADD AND SWAP1 POP DUP1 DUP4 ADD SWAP3 POP POP POP POP POP POP POP DUP2 PUSH1 0x20 ADD DUP2 SWAP1 MSTORE POP DUP4 DUP4 DUP1 DUP1 PUSH1 0x1F ADD PUSH1 0x20 DUP1 SWAP2 DIV MUL PUSH1 0x20 ADD PUSH1 0x40 MLOAD SWAP1 DUP2 ADD PUSH1 0x40 MSTORE DUP1 SWAP4 SWAP3 SWAP2 SWAP1 DUP2 DUP2 MSTORE PUSH1 0x20 ADD DUP4 DUP4 DUP1 DUP3 DUP5 CALLDATACOPY PUSH1 0x0 DUP2 DUP5 ADD MSTORE PUSH1 0x1F NOT PUSH1 0x1F DUP3 ADD AND SWAP1 POP DUP1 DUP4 ADD SWAP3 POP POP POP POP POP POP POP DUP2 PUSH1 0x40 ADD DUP2 SWAP1 MSTORE POP DUP1 PUSH1 0x0 DUP1 DUP5 DUP2 MSTORE PUSH1 0x20 ADD SWAP1 DUP2 MSTORE PUSH1 0x20 ADD PUSH1 0x0 KECCAK256 PUSH1 0x0 DUP3 ADD MLOAD DUP2 PUSH1 0x0 ADD SSTORE PUSH1 0x20 DUP3 ADD MLOAD DUP2 PUSH1 0x1 ADD SWAP1 DUP1 MLOAD SWAP1 PUSH1 0x20 ADD SWAP1 PUSH2 0x164 SWAP3 SWAP2 SWAP1 PUSH2 0x2E8 JUMP JUMPDEST POP PUSH1 0x40 DUP3 ADD MLOAD DUP2 PUSH1 0x2 ADD SWAP1 DUP1 MLOAD SWAP1 PUSH1 0x20 ADD SWAP1 PUSH2 0x181 SWAP3 SWAP2 SWAP1 PUSH2 0x2E8 JUMP JUMPDEST POP SWAP1 POP POP POP POP POP POP POP POP JUMP JUMPDEST PUSH1 0x0 PUSH1 0x20 MSTORE DUP1 PUSH1 0x0 MSTORE PUSH1 0x40 PUSH1 0x0 KECCAK256 PUSH1 0x0 SWAP2 POP SWAP1 POP DUP1 PUSH1 0x0 ADD SLOAD SWAP1 DUP1 PUSH1 0x1 ADD DUP1 SLOAD PUSH2 0x1B6 SWAP1 PUSH2 0x59E JUMP JUMPDEST DUP1 PUSH1 0x1F ADD PUSH1 0x20 DUP1 SWAP2 DIV MUL PUSH1 0x20 ADD PUSH1 0x40 MLOAD SWAP1 DUP2 ADD PUSH1 0x40 MSTORE DUP1 SWAP3 SWAP2 SWAP1 DUP2 DUP2 MSTORE PUSH1 0x20 ADD DUP3 DUP1 SLOAD PUSH2 0x1E2 SWAP1 PUSH2 0x59E JUMP JUMPDEST DUP1 ISZERO PUSH2 0x22F JUMPI DUP1 PUSH1 0x1F LT PUSH2 0x204 JUMPI PUSH2 0x100 DUP1 DUP4 SLOAD DIV MUL DUP4 MSTORE SWAP2 PUSH1 0x20 ADD SWAP2 PUSH2 0x22F JUMP JUMPDEST DUP3 ADD SWAP2 SWAP1 PUSH1 0x0 MSTORE PUSH1 0x20 PUSH1 0x0 KECCAK256 SWAP1 JUMPDEST DUP2 SLOAD DUP2 MSTORE SWAP1 PUSH1 0x1 ADD SWAP1 PUSH1 0x20 ADD DUP1 DUP4 GT PUSH2 0x212 JUMPI DUP3 SWAP1 SUB PUSH1 0x1F AND DUP3 ADD SWAP2 JUMPDEST POP POP POP POP POP SWAP1 DUP1 PUSH1 0x2 ADD DUP1 SLOAD PUSH2 0x244 SWAP1 PUSH2 0x59E JUMP JUMPDEST DUP1 PUSH1 0x1F ADD PUSH1 0x20 DUP1 SWAP2 DIV MUL PUSH1 0x20 ADD PUSH1 0x40 MLOAD SWAP1 DUP2 ADD PUSH1 0x40 MSTORE DUP1 SWAP3 SWAP2 SWAP1 DUP2 DUP2 MSTORE PUSH1 0x20 ADD DUP3 DUP1 SLOAD PUSH2 0x270 SWAP1 PUSH2 0x59E JUMP JUMPDEST DUP1 ISZERO PUSH2 0x2BD JUMPI DUP1 PUSH1 0x1F LT PUSH2 0x292 JUMPI PUSH2 0x100 DUP1 DUP4 SLOAD DIV MUL DUP4 MSTORE SWAP2 PUSH1 0x20 ADD SWAP2 PUSH2 0x2BD JUMP JUMPDEST DUP3 ADD SWAP2 SWAP1 PUSH1 0x0 MSTORE PUSH1 0x20 PUSH1 0x0 KECCAK256 SWAP1 JUMPDEST DUP2 SLOAD DUP2 MSTORE SWAP1 PUSH1 0x1 ADD SWAP1 PUSH1 0x20 ADD DUP1 DUP4 GT PUSH2 0x2A0 JUMPI DUP3 SWAP1 SUB PUSH1 0x1F AND DUP3 ADD SWAP2 JUMPDEST POP POP POP POP POP SWAP1 POP DUP4 JUMP JUMPDEST PUSH1 0x40 MLOAD DUP1 PUSH1 0x60 ADD PUSH1 0x40 MSTORE DUP1 PUSH1 0x0 DUP2 MSTORE PUSH1 0x20 ADD PUSH1 0x60 DUP2 MSTORE PUSH1 0x20 ADD PUSH1 0x60 DUP2 MSTORE POP SWAP1 JUMP JUMPDEST DUP3 DUP1 SLOAD PUSH2 0x2F4 SWAP1 PUSH2 0x59E JUMP JUMPDEST SWAP1 PUSH1 0x0 MSTORE PUSH1 0x20 PUSH1 0x0 KECCAK256 SWAP1 PUSH1 0x1F ADD PUSH1 0x20 SWAP1 DIV DUP2 ADD SWAP3 DUP3 PUSH2 0x316 JUMPI PUSH1 0x0 DUP6 SSTORE PUSH2 0x35D JUMP JUMPDEST DUP3 PUSH1 0x1F LT PUSH2 0x32F JUMPI DUP1 MLOAD PUSH1 0xFF NOT AND DUP4 DUP1 ADD OR DUP6 SSTORE PUSH2 0x35D JUMP JUMPDEST DUP3 DUP1 ADD PUSH1 0x1 ADD DUP6 SSTORE DUP3 ISZERO PUSH2 0x35D JUMPI SWAP2 DUP3 ADD JUMPDEST DUP3 DUP2 GT ISZERO PUSH2 0x35C JUMPI DUP3 MLOAD DUP3 SSTORE SWAP2 PUSH1 0x20 ADD SWAP2 SWAP1 PUSH1 0x1 ADD SWAP1 PUSH2 0x341 JUMP JUMPDEST JUMPDEST POP SWAP1 POP PUSH2 0x36A SWAP2 SWAP1 PUSH2 0x36E JUMP JUMPDEST POP SWAP1 JUMP JUMPDEST JUMPDEST DUP1 DUP3 GT ISZERO PUSH2 0x387 JUMPI PUSH1 0x0 DUP2 PUSH1 0x0 SWAP1 SSTORE POP PUSH1 0x1 ADD PUSH2 0x36F JUMP JUMPDEST POP SWAP1 JUMP JUMPDEST PUSH1 0x0 DUP1 DUP4 PUSH1 0x1F DUP5 ADD SLT PUSH2 0x3A1 JUMPI PUSH2 0x3A0 PUSH2 0x604 JUMP JUMPDEST JUMPDEST DUP3 CALLDATALOAD SWAP1 POP PUSH8 0xFFFFFFFFFFFFFFFF DUP2 GT ISZERO PUSH2 0x3BE JUMPI PUSH2 0x3BD PUSH2 0x5FF JUMP JUMPDEST JUMPDEST PUSH1 0x20 DUP4 ADD SWAP2 POP DUP4 PUSH1 0x1 DUP3 MUL DUP4 ADD GT ISZERO PUSH2 0x3DA JUMPI PUSH2 0x3D9 PUSH2 0x609 JUMP JUMPDEST JUMPDEST SWAP3 POP SWAP3 SWAP1 POP JUMP JUMPDEST PUSH1 0x0 DUP2 CALLDATALOAD SWAP1 POP PUSH2 0x3F0 DUP2 PUSH2 0x629 JUMP JUMPDEST SWAP3 SWAP2 POP POP JUMP JUMPDEST PUSH1 0x0 DUP1 PUSH1 0x0 DUP1 PUSH1 0x0 PUSH1 0x60 DUP7 DUP9 SUB SLT ISZERO PUSH2 0x412 JUMPI PUSH2 0x411 PUSH2 0x613 JUMP JUMPDEST JUMPDEST PUSH1 0x0 DUP7 ADD CALLDATALOAD PUSH8 0xFFFFFFFFFFFFFFFF DUP2 GT ISZERO PUSH2 0x430 JUMPI PUSH2 0x42F PUSH2 0x60E JUMP JUMPDEST JUMPDEST PUSH2 0x43C DUP9 DUP3 DUP10 ADD PUSH2 0x38B JUMP JUMPDEST SWAP6 POP SWAP6 POP POP PUSH1 0x20 DUP7 ADD CALLDATALOAD PUSH8 0xFFFFFFFFFFFFFFFF DUP2 GT ISZERO PUSH2 0x45F JUMPI PUSH2 0x45E PUSH2 0x60E JUMP JUMPDEST JUMPDEST PUSH2 0x46B DUP9 DUP3 DUP10 ADD PUSH2 0x38B JUMP JUMPDEST SWAP4 POP SWAP4 POP POP PUSH1 0x40 PUSH2 0x47E DUP9 DUP3 DUP10 ADD PUSH2 0x3E1 JUMP JUMPDEST SWAP2 POP POP SWAP3 SWAP6 POP SWAP3 SWAP6 SWAP1 SWAP4 POP JUMP JUMPDEST PUSH1 0x0 PUSH1 0x20 DUP3 DUP5 SUB SLT ISZERO PUSH2 0x4A1 JUMPI PUSH2 0x4A0 PUSH2 0x613 JUMP JUMPDEST JUMPDEST PUSH1 0x0 PUSH2 0x4AF DUP5 DUP3 DUP6 ADD PUSH2 0x3E1 JUMP JUMPDEST SWAP2 POP POP SWAP3 SWAP2 POP POP JUMP JUMPDEST PUSH1 0x0 PUSH2 0x4C3 DUP3 PUSH2 0x545 JUMP JUMPDEST PUSH2 0x4CD DUP2 DUP6 PUSH2 0x550 JUMP JUMPDEST SWAP4 POP PUSH2 0x4DD DUP2 DUP6 PUSH1 0x20 DUP7 ADD PUSH2 0x56B JUMP JUMPDEST PUSH2 0x4E6 DUP2 PUSH2 0x618 JUMP JUMPDEST DUP5 ADD SWAP2 POP POP SWAP3 SWAP2 POP POP JUMP JUMPDEST PUSH2 0x4FA DUP2 PUSH2 0x561 JUMP JUMPDEST DUP3 MSTORE POP POP JUMP JUMPDEST PUSH1 0x0 PUSH1 0x60 DUP3 ADD SWAP1 POP PUSH2 0x515 PUSH1 0x0 DUP4 ADD DUP7 PUSH2 0x4F1 JUMP JUMPDEST DUP2 DUP2 SUB PUSH1 0x20 DUP4 ADD MSTORE PUSH2 0x527 DUP2 DUP6 PUSH2 0x4B8 JUMP JUMPDEST SWAP1 POP DUP2 DUP2 SUB PUSH1 0x40 DUP4 ADD MSTORE PUSH2 0x53B DUP2 DUP5 PUSH2 0x4B8 JUMP JUMPDEST SWAP1 POP SWAP5 SWAP4 POP POP POP POP JUMP JUMPDEST PUSH1 0x0 DUP2 MLOAD SWAP1 POP SWAP2 SWAP1 POP JUMP JUMPDEST PUSH1 0x0 DUP3 DUP3 MSTORE PUSH1 0x20 DUP3 ADD SWAP1 POP SWAP3 SWAP2 POP POP JUMP JUMPDEST PUSH1 0x0 DUP2 SWAP1 POP SWAP2 SWAP1 POP JUMP JUMPDEST PUSH1 0x0 JUMPDEST DUP4 DUP2 LT ISZERO PUSH2 0x589 JUMPI DUP1 DUP3 ADD MLOAD DUP2 DUP5 ADD MSTORE PUSH1 0x20 DUP2 ADD SWAP1 POP PUSH2 0x56E JUMP JUMPDEST DUP4 DUP2 GT ISZERO PUSH2 0x598 JUMPI PUSH1 0x0 DUP5 DUP5 ADD MSTORE JUMPDEST POP POP POP POP JUMP JUMPDEST PUSH1 0x0 PUSH1 0x2 DUP3 DIV SWAP1 POP PUSH1 0x1 DUP3 AND DUP1 PUSH2 0x5B6 JUMPI PUSH1 0x7F DUP3 AND SWAP2 POP JUMPDEST PUSH1 0x20 DUP3 LT DUP2 EQ ISZERO PUSH2 0x5CA JUMPI PUSH2 0x5C9 PUSH2 0x5D0 JUMP JUMPDEST JUMPDEST POP SWAP2 SWAP1 POP JUMP JUMPDEST PUSH32 0x4E487B7100000000000000000000000000000000000000000000000000000000 PUSH1 0x0 MSTORE PUSH1 0x22 PUSH1 0x4 MSTORE PUSH1 0x24 PUSH1 0x0 REVERT JUMPDEST PUSH1 0x0 DUP1 REVERT JUMPDEST PUSH1 0x0 DUP1 REVERT JUMPDEST PUSH1 0x0 DUP1 REVERT JUMPDEST PUSH1 0x0 DUP1 REVERT JUMPDEST PUSH1 0x0 DUP1 REVERT JUMPDEST PUSH1 0x0 PUSH1 0x1F NOT PUSH1 0x1F DUP4 ADD AND SWAP1 POP SWAP2 SWAP1 POP JUMP JUMPDEST PUSH2 0x632 DUP2 PUSH2 0x561 JUMP JUMPDEST DUP2 EQ PUSH2 0x63D JUMPI PUSH1 0x0 DUP1 REVERT JUMPDEST POP JUMP INVALID LOG2 PUSH5 0x6970667358 0x22 SLT KECCAK256 0xF 0xD2 SWAP13 PUSH21 0xB377A417B29FB4E209683B2D778E9D307A63EB20DD EXTCODEHASH 0x28 0xD9 0x4C 0xE4 0xE8 OR PUSH5 0x736F6C6343 STOP ADDMOD SMOD STOP CALLER "
				},
				"gasEstimates": {
					"creation": {
						"codeDepositCost": "330800",
						"executionCost": "368",
						"totalCost": "331168"
					},
					"external": {
						"add(string,string,uint256)": "infinite",
						"medicines(uint256)": "infinite"
					}
				},
				"methodIdentifiers": {
					"add(string,string,uint256)": "88abe76f",
					"medicines(uint256)": "c85e766d"
				}
			},
			"storageLayout": {
				"storage": [
					{
						"astId": 13,
						"contract": "contracts/Medicine.sol:Medicines",
						"label": "medicines",
						"offset": 0,
						"slot": "0",
						"type": "t_mapping(t_uint256,t_struct(Medicine)8_storage)"
					}
				],
				"types": {
					"t_mapping(t_uint256,t_struct(Medicine)8_storage)": {
						"encoding": "mapping",
						"key": "t_uint256",
						"label": "mapping(uint256 => struct Medicines.Medicine)",
						"numberOfBytes": "32",
						"value": "t_struct(Medicine)8_storage"
					},
					"t_string_storage": {
						"encoding": "bytes",
						"label": "string",
						"numberOfBytes": "32"
					},
					"t_struct(Medicine)8_storage": {
						"encoding": "inplace",
						"label": "struct Medicines.Medicine",
						"members": [
							{
								"astId": 3,
								"contract": "contracts/Medicine.sol:Medicines",
								"label": "ID",
								"offset": 0,
								"slot": "0",
								"type": "t_uint256"
							},
							{
								"astId": 5,
								"contract": "contracts/Medicine.sol:Medicines",
								"label": "name",
								"offset": 0,
								"slot": "1",
								"type": "t_string_storage"
							},
							{
								"astId": 7,
								"contract": "contracts/Medicine.sol:Medicines",
								"label": "content",
								"offset": 0,
								"slot": "2",
								"type": "t_string_storage"
							}
						],
						"numberOfBytes": "96"
					},
					"t_uint256": {
						"encoding": "inplace",
						"label": "uint256",
						"numberOfBytes": "32"
					}
				}
			},
			"userdoc": {
				"kind": "user",
				"methods": {},
				"version": 1
			}
		}
	}
}