{
	"contracts/Medicine.sol": {
		"Prescription": {
			"abi": [
				{
					"inputs": [
						{
							"internalType": "string",
							"name": "_name",
							"type": "string"
						},
						{
							"internalType": "uint32",
							"name": "_quantity",
							"type": "uint32"
						},
						{
							"internalType": "uint8",
							"name": "_dosing",
							"type": "uint8"
						},
						{
							"internalType": "uint8",
							"name": "_strength",
							"type": "uint8"
						},
						{
							"internalType": "uint8",
							"name": "_duration",
							"type": "uint8"
						}
					],
					"name": "addMedicine",
					"outputs": [],
					"stateMutability": "nonpayable",
					"type": "function"
				},
				{
					"inputs": [
						{
							"internalType": "uint256",
							"name": "",
							"type": "uint256"
						}
					],
					"name": "medicines",
					"outputs": [
						{
							"internalType": "uint256",
							"name": "ID",
							"type": "uint256"
						},
						{
							"internalType": "string",
							"name": "name",
							"type": "string"
						},
						{
							"internalType": "uint32",
							"name": "quantity",
							"type": "uint32"
						},
						{
							"internalType": "uint8",
							"name": "dosing",
							"type": "uint8"
						},
						{
							"internalType": "uint8",
							"name": "strength",
							"type": "uint8"
						},
						{
							"internalType": "uint8",
							"name": "duration",
							"type": "uint8"
						}
					],
					"stateMutability": "view",
					"type": "function"
				}
			],
			"devdoc": {
				"kind": "dev",
				"methods": {},
				"version": 1
			},
			"evm": {
				"assembly": "    /* \"contracts/Medicine.sol\":281:1134  contract Prescription is IPrescription {\r... */\n  mstore(0x40, 0x80)\n  callvalue\n  dup1\n  iszero\n  tag_1\n  jumpi\n  0x00\n  dup1\n  revert\ntag_1:\n  pop\n  dataSize(sub_0)\n  dup1\n  dataOffset(sub_0)\n  0x00\n  codecopy\n  0x00\n  return\nstop\n\nsub_0: assembly {\n        /* \"contracts/Medicine.sol\":281:1134  contract Prescription is IPrescription {\r... */\n      mstore(0x40, 0x80)\n      callvalue\n      dup1\n      iszero\n      tag_1\n      jumpi\n      0x00\n      dup1\n      revert\n    tag_1:\n      pop\n      jumpi(tag_2, lt(calldatasize, 0x04))\n      shr(0xe0, calldataload(0x00))\n      dup1\n      0x4f36e44e\n      eq\n      tag_3\n      jumpi\n      dup1\n      0xc85e766d\n      eq\n      tag_4\n      jumpi\n    tag_2:\n      0x00\n      dup1\n      revert\n        /* \"contracts/Medicine.sol\":676:1131  function addMedicine(\r... */\n    tag_3:\n      tag_5\n      0x04\n      dup1\n      calldatasize\n      sub\n      dup2\n      add\n      swap1\n      tag_6\n      swap2\n      swap1\n      tag_7\n      jump\t// in\n    tag_6:\n      tag_8\n      jump\t// in\n    tag_5:\n      stop\n        /* \"contracts/Medicine.sol\":640:667  Medicine[] public medicines */\n    tag_4:\n      tag_9\n      0x04\n      dup1\n      calldatasize\n      sub\n      dup2\n      add\n      swap1\n      tag_10\n      swap2\n      swap1\n      tag_11\n      jump\t// in\n    tag_10:\n      tag_12\n      jump\t// in\n    tag_9:\n      mload(0x40)\n      tag_13\n      swap7\n      swap6\n      swap5\n      swap4\n      swap3\n      swap2\n      swap1\n      tag_14\n      jump\t// in\n    tag_13:\n      mload(0x40)\n      dup1\n      swap2\n      sub\n      swap1\n      return\n        /* \"contracts/Medicine.sol\":676:1131  function addMedicine(\r... */\n    tag_8:\n        /* \"contracts/Medicine.sol\":870:894  Medicine memory medicine */\n      tag_16\n      tag_17\n      jump\t// in\n    tag_16:\n        /* \"contracts/Medicine.sol\":923:928  _name */\n      dup7\n      dup7\n        /* \"contracts/Medicine.sol\":907:928  medicine.name = _name */\n      dup1\n      dup1\n      0x1f\n      add\n      0x20\n      dup1\n      swap2\n      div\n      mul\n      0x20\n      add\n      mload(0x40)\n      swap1\n      dup2\n      add\n      0x40\n      mstore\n      dup1\n      swap4\n      swap3\n      swap2\n      swap1\n      dup2\n      dup2\n      mstore\n      0x20\n      add\n      dup4\n      dup4\n      dup1\n      dup3\n      dup5\n      calldatacopy\n      0x00\n      dup2\n      dup5\n      add\n      mstore\n      not(0x1f)\n      0x1f\n      dup3\n      add\n      and\n      swap1\n      pop\n      dup1\n      dup4\n      add\n      swap3\n      pop\n      pop\n      pop\n      pop\n      pop\n      pop\n      pop\n        /* \"contracts/Medicine.sol\":907:915  medicine */\n      dup2\n        /* \"contracts/Medicine.sol\":907:920  medicine.name */\n      0x20\n      add\n        /* \"contracts/Medicine.sol\":907:928  medicine.name = _name */\n      dup2\n      swap1\n      mstore\n      pop\n        /* \"contracts/Medicine.sol\":959:968  _quantity */\n      dup5\n        /* \"contracts/Medicine.sol\":939:947  medicine */\n      dup2\n        /* \"contracts/Medicine.sol\":939:956  medicine.quantity */\n      0x40\n      add\n        /* \"contracts/Medicine.sol\":939:968  medicine.quantity = _quantity */\n      swap1\n      0xffffffff\n      and\n      swap1\n      dup2\n      0xffffffff\n      and\n      dup2\n      mstore\n      pop\n      pop\n        /* \"contracts/Medicine.sol\":997:1004  _dosing */\n      dup4\n        /* \"contracts/Medicine.sol\":979:987  medicine */\n      dup2\n        /* \"contracts/Medicine.sol\":979:994  medicine.dosing */\n      0x60\n      add\n        /* \"contracts/Medicine.sol\":979:1004  medicine.dosing = _dosing */\n      swap1\n      0xff\n      and\n      swap1\n      dup2\n      0xff\n      and\n      dup2\n      mstore\n      pop\n      pop\n        /* \"contracts/Medicine.sol\":1035:1044  _strength */\n      dup3\n        /* \"contracts/Medicine.sol\":1015:1023  medicine */\n      dup2\n        /* \"contracts/Medicine.sol\":1015:1032  medicine.strength */\n      0x80\n      add\n        /* \"contracts/Medicine.sol\":1015:1044  medicine.strength = _strength */\n      swap1\n      0xff\n      and\n      swap1\n      dup2\n      0xff\n      and\n      dup2\n      mstore\n      pop\n      pop\n        /* \"contracts/Medicine.sol\":1075:1084  _duration */\n      dup2\n        /* \"contracts/Medicine.sol\":1055:1063  medicine */\n      dup2\n        /* \"contracts/Medicine.sol\":1055:1072  medicine.duration */\n      0xa0\n      add\n        /* \"contracts/Medicine.sol\":1055:1084  medicine.duration = _duration */\n      swap1\n      0xff\n      and\n      swap1\n      dup2\n      0xff\n      and\n      dup2\n      mstore\n      pop\n      pop\n        /* \"contracts/Medicine.sol\":1097:1106  medicines */\n      0x01\n        /* \"contracts/Medicine.sol\":1112:1120  medicine */\n      dup2\n        /* \"contracts/Medicine.sol\":1097:1121  medicines.push(medicine) */\n      swap1\n      dup1\n      0x01\n      dup2\n      sload\n      add\n      dup1\n      dup3\n      sstore\n      dup1\n      swap2\n      pop\n      pop\n      0x01\n      swap1\n      sub\n      swap1\n      0x00\n      mstore\n      keccak256(0x00, 0x20)\n      swap1\n      0x03\n      mul\n      add\n      0x00\n      swap1\n      swap2\n      swap1\n      swap2\n      swap1\n      swap2\n      pop\n      0x00\n      dup3\n      add\n      mload\n      dup2\n      0x00\n      add\n      sstore\n      0x20\n      dup3\n      add\n      mload\n      dup2\n      0x01\n      add\n      swap1\n      dup1\n      mload\n      swap1\n      0x20\n      add\n      swap1\n      tag_19\n      swap3\n      swap2\n      swap1\n      tag_20\n      jump\t// in\n    tag_19:\n      pop\n      0x40\n      dup3\n      add\n      mload\n      dup2\n      0x02\n      add\n      exp(0x0100, 0x00)\n      dup2\n      sload\n      dup2\n      0xffffffff\n      mul\n      not\n      and\n      swap1\n      dup4\n      0xffffffff\n      and\n      mul\n      or\n      swap1\n      sstore\n      pop\n      0x60\n      dup3\n      add\n      mload\n      dup2\n      0x02\n      add\n      exp(0x0100, 0x04)\n      dup2\n      sload\n      dup2\n      0xff\n      mul\n      not\n      and\n      swap1\n      dup4\n      0xff\n      and\n      mul\n      or\n      swap1\n      sstore\n      pop\n      0x80\n      dup3\n      add\n      mload\n      dup2\n      0x02\n      add\n      exp(0x0100, 0x05)\n      dup2\n      sload\n      dup2\n      0xff\n      mul\n      not\n      and\n      swap1\n      dup4\n      0xff\n      and\n      mul\n      or\n      swap1\n      sstore\n      pop\n      0xa0\n      dup3\n      add\n      mload\n      dup2\n      0x02\n      add\n      exp(0x0100, 0x06)\n      dup2\n      sload\n      dup2\n      0xff\n      mul\n      not\n      and\n      swap1\n      dup4\n      0xff\n      and\n      mul\n      or\n      swap1\n      sstore\n      pop\n      pop\n      pop\n        /* \"contracts/Medicine.sol\":857:1131  {\r... */\n      pop\n        /* \"contracts/Medicine.sol\":676:1131  function addMedicine(\r... */\n      pop\n      pop\n      pop\n      pop\n      pop\n      pop\n      jump\t// out\n        /* \"contracts/Medicine.sol\":640:667  Medicine[] public medicines */\n    tag_12:\n      0x01\n      dup2\n      dup2\n      sload\n      dup2\n      lt\n      tag_21\n      jumpi\n      0x00\n      dup1\n      revert\n    tag_21:\n      swap1\n      0x00\n      mstore\n      keccak256(0x00, 0x20)\n      swap1\n      0x03\n      mul\n      add\n      0x00\n      swap2\n      pop\n      swap1\n      pop\n      dup1\n      0x00\n      add\n      sload\n      swap1\n      dup1\n      0x01\n      add\n      dup1\n      sload\n      tag_23\n      swap1\n      tag_24\n      jump\t// in\n    tag_23:\n      dup1\n      0x1f\n      add\n      0x20\n      dup1\n      swap2\n      div\n      mul\n      0x20\n      add\n      mload(0x40)\n      swap1\n      dup2\n      add\n      0x40\n      mstore\n      dup1\n      swap3\n      swap2\n      swap1\n      dup2\n      dup2\n      mstore\n      0x20\n      add\n      dup3\n      dup1\n      sload\n      tag_25\n      swap1\n      tag_24\n      jump\t// in\n    tag_25:\n      dup1\n      iszero\n      tag_26\n      jumpi\n      dup1\n      0x1f\n      lt\n      tag_27\n      jumpi\n      0x0100\n      dup1\n      dup4\n      sload\n      div\n      mul\n      dup4\n      mstore\n      swap2\n      0x20\n      add\n      swap2\n      jump(tag_26)\n    tag_27:\n      dup3\n      add\n      swap2\n      swap1\n      0x00\n      mstore\n      keccak256(0x00, 0x20)\n      swap1\n    tag_28:\n      dup2\n      sload\n      dup2\n      mstore\n      swap1\n      0x01\n      add\n      swap1\n      0x20\n      add\n      dup1\n      dup4\n      gt\n      tag_28\n      jumpi\n      dup3\n      swap1\n      sub\n      0x1f\n      and\n      dup3\n      add\n      swap2\n    tag_26:\n      pop\n      pop\n      pop\n      pop\n      pop\n      swap1\n      dup1\n      0x02\n      add\n      0x00\n      swap1\n      sload\n      swap1\n      0x0100\n      exp\n      swap1\n      div\n      0xffffffff\n      and\n      swap1\n      dup1\n      0x02\n      add\n      0x04\n      swap1\n      sload\n      swap1\n      0x0100\n      exp\n      swap1\n      div\n      0xff\n      and\n      swap1\n      dup1\n      0x02\n      add\n      0x05\n      swap1\n      sload\n      swap1\n      0x0100\n      exp\n      swap1\n      div\n      0xff\n      and\n      swap1\n      dup1\n      0x02\n      add\n      0x06\n      swap1\n      sload\n      swap1\n      0x0100\n      exp\n      swap1\n      div\n      0xff\n      and\n      swap1\n      pop\n      dup7\n      jump\t// out\n    tag_17:\n      mload(0x40)\n      dup1\n      0xc0\n      add\n      0x40\n      mstore\n      dup1\n      0x00\n      dup2\n      mstore\n      0x20\n      add\n      0x60\n      dup2\n      mstore\n      0x20\n      add\n      and(0xffffffff, 0x00)\n      dup2\n      mstore\n      0x20\n      add\n      and(0xff, 0x00)\n      dup2\n      mstore\n      0x20\n      add\n      and(0xff, 0x00)\n      dup2\n      mstore\n      0x20\n      add\n      and(0xff, 0x00)\n      dup2\n      mstore\n      pop\n      swap1\n      jump\t// out\n    tag_20:\n      dup3\n      dup1\n      sload\n      tag_29\n      swap1\n      tag_24\n      jump\t// in\n    tag_29:\n      swap1\n      0x00\n      mstore\n      keccak256(0x00, 0x20)\n      swap1\n      0x1f\n      add\n      0x20\n      swap1\n      div\n      dup2\n      add\n      swap3\n      dup3\n      tag_31\n      jumpi\n      0x00\n      dup6\n      sstore\n      jump(tag_30)\n    tag_31:\n      dup3\n      0x1f\n      lt\n      tag_32\n      jumpi\n      dup1\n      mload\n      not(0xff)\n      and\n      dup4\n      dup1\n      add\n      or\n      dup6\n      sstore\n      jump(tag_30)\n    tag_32:\n      dup3\n      dup1\n      add\n      0x01\n      add\n      dup6\n      sstore\n      dup3\n      iszero\n      tag_30\n      jumpi\n      swap2\n      dup3\n      add\n    tag_33:\n      dup3\n      dup2\n      gt\n      iszero\n      tag_34\n      jumpi\n      dup3\n      mload\n      dup3\n      sstore\n      swap2\n      0x20\n      add\n      swap2\n      swap1\n      0x01\n      add\n      swap1\n      jump(tag_33)\n    tag_34:\n    tag_30:\n      pop\n      swap1\n      pop\n      tag_35\n      swap2\n      swap1\n      tag_36\n      jump\t// in\n    tag_35:\n      pop\n      swap1\n      jump\t// out\n    tag_36:\n    tag_37:\n      dup1\n      dup3\n      gt\n      iszero\n      tag_38\n      jumpi\n      0x00\n      dup2\n      0x00\n      swap1\n      sstore\n      pop\n      0x01\n      add\n      jump(tag_37)\n    tag_38:\n      pop\n      swap1\n      jump\t// out\n        /* \"#utility.yul\":21:574   */\n    tag_40:\n        /* \"#utility.yul\":79:87   */\n      0x00\n        /* \"#utility.yul\":89:95   */\n      dup1\n        /* \"#utility.yul\":139:142   */\n      dup4\n        /* \"#utility.yul\":132:136   */\n      0x1f\n        /* \"#utility.yul\":124:130   */\n      dup5\n        /* \"#utility.yul\":120:137   */\n      add\n        /* \"#utility.yul\":116:143   */\n      slt\n        /* \"#utility.yul\":106:228   */\n      tag_42\n      jumpi\n        /* \"#utility.yul\":147:226   */\n      tag_43\n      tag_44\n      jump\t// in\n    tag_43:\n        /* \"#utility.yul\":106:228   */\n    tag_42:\n        /* \"#utility.yul\":260:266   */\n      dup3\n        /* \"#utility.yul\":247:267   */\n      calldataload\n        /* \"#utility.yul\":237:267   */\n      swap1\n      pop\n        /* \"#utility.yul\":290:308   */\n      0xffffffffffffffff\n        /* \"#utility.yul\":282:288   */\n      dup2\n        /* \"#utility.yul\":279:309   */\n      gt\n        /* \"#utility.yul\":276:393   */\n      iszero\n      tag_45\n      jumpi\n        /* \"#utility.yul\":312:391   */\n      tag_46\n      tag_47\n      jump\t// in\n    tag_46:\n        /* \"#utility.yul\":276:393   */\n    tag_45:\n        /* \"#utility.yul\":426:430   */\n      0x20\n        /* \"#utility.yul\":418:424   */\n      dup4\n        /* \"#utility.yul\":414:431   */\n      add\n        /* \"#utility.yul\":402:431   */\n      swap2\n      pop\n        /* \"#utility.yul\":480:483   */\n      dup4\n        /* \"#utility.yul\":472:476   */\n      0x01\n        /* \"#utility.yul\":464:470   */\n      dup3\n        /* \"#utility.yul\":460:477   */\n      mul\n        /* \"#utility.yul\":450:458   */\n      dup4\n        /* \"#utility.yul\":446:478   */\n      add\n        /* \"#utility.yul\":443:484   */\n      gt\n        /* \"#utility.yul\":440:568   */\n      iszero\n      tag_48\n      jumpi\n        /* \"#utility.yul\":487:566   */\n      tag_49\n      tag_50\n      jump\t// in\n    tag_49:\n        /* \"#utility.yul\":440:568   */\n    tag_48:\n        /* \"#utility.yul\":21:574   */\n      swap3\n      pop\n      swap3\n      swap1\n      pop\n      jump\t// out\n        /* \"#utility.yul\":580:719   */\n    tag_51:\n        /* \"#utility.yul\":626:631   */\n      0x00\n        /* \"#utility.yul\":664:670   */\n      dup2\n        /* \"#utility.yul\":651:671   */\n      calldataload\n        /* \"#utility.yul\":642:671   */\n      swap1\n      pop\n        /* \"#utility.yul\":680:713   */\n      tag_53\n        /* \"#utility.yul\":707:712   */\n      dup2\n        /* \"#utility.yul\":680:713   */\n      tag_54\n      jump\t// in\n    tag_53:\n        /* \"#utility.yul\":580:719   */\n      swap3\n      swap2\n      pop\n      pop\n      jump\t// out\n        /* \"#utility.yul\":725:862   */\n    tag_55:\n        /* \"#utility.yul\":770:775   */\n      0x00\n        /* \"#utility.yul\":808:814   */\n      dup2\n        /* \"#utility.yul\":795:815   */\n      calldataload\n        /* \"#utility.yul\":786:815   */\n      swap1\n      pop\n        /* \"#utility.yul\":824:856   */\n      tag_57\n        /* \"#utility.yul\":850:855   */\n      dup2\n        /* \"#utility.yul\":824:856   */\n      tag_58\n      jump\t// in\n    tag_57:\n        /* \"#utility.yul\":725:862   */\n      swap3\n      swap2\n      pop\n      pop\n      jump\t// out\n        /* \"#utility.yul\":868:1003   */\n    tag_59:\n        /* \"#utility.yul\":912:917   */\n      0x00\n        /* \"#utility.yul\":950:956   */\n      dup2\n        /* \"#utility.yul\":937:957   */\n      calldataload\n        /* \"#utility.yul\":928:957   */\n      swap1\n      pop\n        /* \"#utility.yul\":966:997   */\n      tag_61\n        /* \"#utility.yul\":991:996   */\n      dup2\n        /* \"#utility.yul\":966:997   */\n      tag_62\n      jump\t// in\n    tag_61:\n        /* \"#utility.yul\":868:1003   */\n      swap3\n      swap2\n      pop\n      pop\n      jump\t// out\n        /* \"#utility.yul\":1009:2106   */\n    tag_7:\n        /* \"#utility.yul\":1109:1115   */\n      0x00\n        /* \"#utility.yul\":1117:1123   */\n      dup1\n        /* \"#utility.yul\":1125:1131   */\n      0x00\n        /* \"#utility.yul\":1133:1139   */\n      dup1\n        /* \"#utility.yul\":1141:1147   */\n      0x00\n        /* \"#utility.yul\":1149:1155   */\n      dup1\n        /* \"#utility.yul\":1198:1201   */\n      0xa0\n        /* \"#utility.yul\":1186:1195   */\n      dup8\n        /* \"#utility.yul\":1177:1184   */\n      dup10\n        /* \"#utility.yul\":1173:1196   */\n      sub\n        /* \"#utility.yul\":1169:1202   */\n      slt\n        /* \"#utility.yul\":1166:1286   */\n      iszero\n      tag_64\n      jumpi\n        /* \"#utility.yul\":1205:1284   */\n      tag_65\n      tag_66\n      jump\t// in\n    tag_65:\n        /* \"#utility.yul\":1166:1286   */\n    tag_64:\n        /* \"#utility.yul\":1353:1354   */\n      0x00\n        /* \"#utility.yul\":1342:1351   */\n      dup8\n        /* \"#utility.yul\":1338:1355   */\n      add\n        /* \"#utility.yul\":1325:1356   */\n      calldataload\n        /* \"#utility.yul\":1383:1401   */\n      0xffffffffffffffff\n        /* \"#utility.yul\":1375:1381   */\n      dup2\n        /* \"#utility.yul\":1372:1402   */\n      gt\n        /* \"#utility.yul\":1369:1486   */\n      iszero\n      tag_67\n      jumpi\n        /* \"#utility.yul\":1405:1484   */\n      tag_68\n      tag_69\n      jump\t// in\n    tag_68:\n        /* \"#utility.yul\":1369:1486   */\n    tag_67:\n        /* \"#utility.yul\":1518:1583   */\n      tag_70\n        /* \"#utility.yul\":1575:1582   */\n      dup10\n        /* \"#utility.yul\":1566:1572   */\n      dup3\n        /* \"#utility.yul\":1555:1564   */\n      dup11\n        /* \"#utility.yul\":1551:1573   */\n      add\n        /* \"#utility.yul\":1518:1583   */\n      tag_40\n      jump\t// in\n    tag_70:\n        /* \"#utility.yul\":1500:1583   */\n      swap7\n      pop\n      swap7\n      pop\n        /* \"#utility.yul\":1296:1593   */\n      pop\n        /* \"#utility.yul\":1632:1634   */\n      0x20\n        /* \"#utility.yul\":1658:1710   */\n      tag_71\n        /* \"#utility.yul\":1702:1709   */\n      dup10\n        /* \"#utility.yul\":1693:1699   */\n      dup3\n        /* \"#utility.yul\":1682:1691   */\n      dup11\n        /* \"#utility.yul\":1678:1700   */\n      add\n        /* \"#utility.yul\":1658:1710   */\n      tag_55\n      jump\t// in\n    tag_71:\n        /* \"#utility.yul\":1648:1710   */\n      swap5\n      pop\n        /* \"#utility.yul\":1603:1720   */\n      pop\n        /* \"#utility.yul\":1759:1761   */\n      0x40\n        /* \"#utility.yul\":1785:1836   */\n      tag_72\n        /* \"#utility.yul\":1828:1835   */\n      dup10\n        /* \"#utility.yul\":1819:1825   */\n      dup3\n        /* \"#utility.yul\":1808:1817   */\n      dup11\n        /* \"#utility.yul\":1804:1826   */\n      add\n        /* \"#utility.yul\":1785:1836   */\n      tag_59\n      jump\t// in\n    tag_72:\n        /* \"#utility.yul\":1775:1836   */\n      swap4\n      pop\n        /* \"#utility.yul\":1730:1846   */\n      pop\n        /* \"#utility.yul\":1885:1887   */\n      0x60\n        /* \"#utility.yul\":1911:1962   */\n      tag_73\n        /* \"#utility.yul\":1954:1961   */\n      dup10\n        /* \"#utility.yul\":1945:1951   */\n      dup3\n        /* \"#utility.yul\":1934:1943   */\n      dup11\n        /* \"#utility.yul\":1930:1952   */\n      add\n        /* \"#utility.yul\":1911:1962   */\n      tag_59\n      jump\t// in\n    tag_73:\n        /* \"#utility.yul\":1901:1962   */\n      swap3\n      pop\n        /* \"#utility.yul\":1856:1972   */\n      pop\n        /* \"#utility.yul\":2011:2014   */\n      0x80\n        /* \"#utility.yul\":2038:2089   */\n      tag_74\n        /* \"#utility.yul\":2081:2088   */\n      dup10\n        /* \"#utility.yul\":2072:2078   */\n      dup3\n        /* \"#utility.yul\":2061:2070   */\n      dup11\n        /* \"#utility.yul\":2057:2079   */\n      add\n        /* \"#utility.yul\":2038:2089   */\n      tag_59\n      jump\t// in\n    tag_74:\n        /* \"#utility.yul\":2028:2089   */\n      swap2\n      pop\n        /* \"#utility.yul\":1982:2099   */\n      pop\n        /* \"#utility.yul\":1009:2106   */\n      swap3\n      swap6\n      pop\n      swap3\n      swap6\n      pop\n      swap3\n      swap6\n      jump\t// out\n        /* \"#utility.yul\":2112:2441   */\n    tag_11:\n        /* \"#utility.yul\":2171:2177   */\n      0x00\n        /* \"#utility.yul\":2220:2222   */\n      0x20\n        /* \"#utility.yul\":2208:2217   */\n      dup3\n        /* \"#utility.yul\":2199:2206   */\n      dup5\n        /* \"#utility.yul\":2195:2218   */\n      sub\n        /* \"#utility.yul\":2191:2223   */\n      slt\n        /* \"#utility.yul\":2188:2307   */\n      iszero\n      tag_76\n      jumpi\n        /* \"#utility.yul\":2226:2305   */\n      tag_77\n      tag_66\n      jump\t// in\n    tag_77:\n        /* \"#utility.yul\":2188:2307   */\n    tag_76:\n        /* \"#utility.yul\":2346:2347   */\n      0x00\n        /* \"#utility.yul\":2371:2424   */\n      tag_78\n        /* \"#utility.yul\":2416:2423   */\n      dup5\n        /* \"#utility.yul\":2407:2413   */\n      dup3\n        /* \"#utility.yul\":2396:2405   */\n      dup6\n        /* \"#utility.yul\":2392:2414   */\n      add\n        /* \"#utility.yul\":2371:2424   */\n      tag_51\n      jump\t// in\n    tag_78:\n        /* \"#utility.yul\":2361:2424   */\n      swap2\n      pop\n        /* \"#utility.yul\":2317:2434   */\n      pop\n        /* \"#utility.yul\":2112:2441   */\n      swap3\n      swap2\n      pop\n      pop\n      jump\t// out\n        /* \"#utility.yul\":2447:2811   */\n    tag_79:\n        /* \"#utility.yul\":2535:2538   */\n      0x00\n        /* \"#utility.yul\":2563:2602   */\n      tag_81\n        /* \"#utility.yul\":2596:2601   */\n      dup3\n        /* \"#utility.yul\":2563:2602   */\n      tag_82\n      jump\t// in\n    tag_81:\n        /* \"#utility.yul\":2618:2689   */\n      tag_83\n        /* \"#utility.yul\":2682:2688   */\n      dup2\n        /* \"#utility.yul\":2677:2680   */\n      dup6\n        /* \"#utility.yul\":2618:2689   */\n      tag_84\n      jump\t// in\n    tag_83:\n        /* \"#utility.yul\":2611:2689   */\n      swap4\n      pop\n        /* \"#utility.yul\":2698:2750   */\n      tag_85\n        /* \"#utility.yul\":2743:2749   */\n      dup2\n        /* \"#utility.yul\":2738:2741   */\n      dup6\n        /* \"#utility.yul\":2731:2735   */\n      0x20\n        /* \"#utility.yul\":2724:2729   */\n      dup7\n        /* \"#utility.yul\":2720:2736   */\n      add\n        /* \"#utility.yul\":2698:2750   */\n      tag_86\n      jump\t// in\n    tag_85:\n        /* \"#utility.yul\":2775:2804   */\n      tag_87\n        /* \"#utility.yul\":2797:2803   */\n      dup2\n        /* \"#utility.yul\":2775:2804   */\n      tag_88\n      jump\t// in\n    tag_87:\n        /* \"#utility.yul\":2770:2773   */\n      dup5\n        /* \"#utility.yul\":2766:2805   */\n      add\n        /* \"#utility.yul\":2759:2805   */\n      swap2\n      pop\n        /* \"#utility.yul\":2539:2811   */\n      pop\n        /* \"#utility.yul\":2447:2811   */\n      swap3\n      swap2\n      pop\n      pop\n      jump\t// out\n        /* \"#utility.yul\":2817:2935   */\n    tag_89:\n        /* \"#utility.yul\":2904:2928   */\n      tag_91\n        /* \"#utility.yul\":2922:2927   */\n      dup2\n        /* \"#utility.yul\":2904:2928   */\n      tag_92\n      jump\t// in\n    tag_91:\n        /* \"#utility.yul\":2899:2902   */\n      dup3\n        /* \"#utility.yul\":2892:2929   */\n      mstore\n        /* \"#utility.yul\":2817:2935   */\n      pop\n      pop\n      jump\t// out\n        /* \"#utility.yul\":2941:3056   */\n    tag_93:\n        /* \"#utility.yul\":3026:3049   */\n      tag_95\n        /* \"#utility.yul\":3043:3048   */\n      dup2\n        /* \"#utility.yul\":3026:3049   */\n      tag_96\n      jump\t// in\n    tag_95:\n        /* \"#utility.yul\":3021:3024   */\n      dup3\n        /* \"#utility.yul\":3014:3050   */\n      mstore\n        /* \"#utility.yul\":2941:3056   */\n      pop\n      pop\n      jump\t// out\n        /* \"#utility.yul\":3062:3174   */\n    tag_97:\n        /* \"#utility.yul\":3145:3167   */\n      tag_99\n        /* \"#utility.yul\":3161:3166   */\n      dup2\n        /* \"#utility.yul\":3145:3167   */\n      tag_100\n      jump\t// in\n    tag_99:\n        /* \"#utility.yul\":3140:3143   */\n      dup3\n        /* \"#utility.yul\":3133:3168   */\n      mstore\n        /* \"#utility.yul\":3062:3174   */\n      pop\n      pop\n      jump\t// out\n        /* \"#utility.yul\":3180:4018   */\n    tag_14:\n        /* \"#utility.yul\":3419:3423   */\n      0x00\n        /* \"#utility.yul\":3457:3460   */\n      0xc0\n        /* \"#utility.yul\":3446:3455   */\n      dup3\n        /* \"#utility.yul\":3442:3461   */\n      add\n        /* \"#utility.yul\":3434:3461   */\n      swap1\n      pop\n        /* \"#utility.yul\":3471:3542   */\n      tag_102\n        /* \"#utility.yul\":3539:3540   */\n      0x00\n        /* \"#utility.yul\":3528:3537   */\n      dup4\n        /* \"#utility.yul\":3524:3541   */\n      add\n        /* \"#utility.yul\":3515:3521   */\n      dup10\n        /* \"#utility.yul\":3471:3542   */\n      tag_89\n      jump\t// in\n    tag_102:\n        /* \"#utility.yul\":3589:3598   */\n      dup2\n        /* \"#utility.yul\":3583:3587   */\n      dup2\n        /* \"#utility.yul\":3579:3599   */\n      sub\n        /* \"#utility.yul\":3574:3576   */\n      0x20\n        /* \"#utility.yul\":3563:3572   */\n      dup4\n        /* \"#utility.yul\":3559:3577   */\n      add\n        /* \"#utility.yul\":3552:3600   */\n      mstore\n        /* \"#utility.yul\":3617:3695   */\n      tag_103\n        /* \"#utility.yul\":3690:3694   */\n      dup2\n        /* \"#utility.yul\":3681:3687   */\n      dup9\n        /* \"#utility.yul\":3617:3695   */\n      tag_79\n      jump\t// in\n    tag_103:\n        /* \"#utility.yul\":3609:3695   */\n      swap1\n      pop\n        /* \"#utility.yul\":3705:3775   */\n      tag_104\n        /* \"#utility.yul\":3771:3773   */\n      0x40\n        /* \"#utility.yul\":3760:3769   */\n      dup4\n        /* \"#utility.yul\":3756:3774   */\n      add\n        /* \"#utility.yul\":3747:3753   */\n      dup8\n        /* \"#utility.yul\":3705:3775   */\n      tag_93\n      jump\t// in\n    tag_104:\n        /* \"#utility.yul\":3785:3853   */\n      tag_105\n        /* \"#utility.yul\":3849:3851   */\n      0x60\n        /* \"#utility.yul\":3838:3847   */\n      dup4\n        /* \"#utility.yul\":3834:3852   */\n      add\n        /* \"#utility.yul\":3825:3831   */\n      dup7\n        /* \"#utility.yul\":3785:3853   */\n      tag_97\n      jump\t// in\n    tag_105:\n        /* \"#utility.yul\":3863:3932   */\n      tag_106\n        /* \"#utility.yul\":3927:3930   */\n      0x80\n        /* \"#utility.yul\":3916:3925   */\n      dup4\n        /* \"#utility.yul\":3912:3931   */\n      add\n        /* \"#utility.yul\":3903:3909   */\n      dup6\n        /* \"#utility.yul\":3863:3932   */\n      tag_97\n      jump\t// in\n    tag_106:\n        /* \"#utility.yul\":3942:4011   */\n      tag_107\n        /* \"#utility.yul\":4006:4009   */\n      0xa0\n        /* \"#utility.yul\":3995:4004   */\n      dup4\n        /* \"#utility.yul\":3991:4010   */\n      add\n        /* \"#utility.yul\":3982:3988   */\n      dup5\n        /* \"#utility.yul\":3942:4011   */\n      tag_97\n      jump\t// in\n    tag_107:\n        /* \"#utility.yul\":3180:4018   */\n      swap8\n      swap7\n      pop\n      pop\n      pop\n      pop\n      pop\n      pop\n      pop\n      jump\t// out\n        /* \"#utility.yul\":4105:4204   */\n    tag_82:\n        /* \"#utility.yul\":4157:4163   */\n      0x00\n        /* \"#utility.yul\":4191:4196   */\n      dup2\n        /* \"#utility.yul\":4185:4197   */\n      mload\n        /* \"#utility.yul\":4175:4197   */\n      swap1\n      pop\n        /* \"#utility.yul\":4105:4204   */\n      swap2\n      swap1\n      pop\n      jump\t// out\n        /* \"#utility.yul\":4210:4379   */\n    tag_84:\n        /* \"#utility.yul\":4294:4305   */\n      0x00\n        /* \"#utility.yul\":4328:4334   */\n      dup3\n        /* \"#utility.yul\":4323:4326   */\n      dup3\n        /* \"#utility.yul\":4316:4335   */\n      mstore\n        /* \"#utility.yul\":4368:4372   */\n      0x20\n        /* \"#utility.yul\":4363:4366   */\n      dup3\n        /* \"#utility.yul\":4359:4373   */\n      add\n        /* \"#utility.yul\":4344:4373   */\n      swap1\n      pop\n        /* \"#utility.yul\":4210:4379   */\n      swap3\n      swap2\n      pop\n      pop\n      jump\t// out\n        /* \"#utility.yul\":4385:4462   */\n    tag_92:\n        /* \"#utility.yul\":4422:4429   */\n      0x00\n        /* \"#utility.yul\":4451:4456   */\n      dup2\n        /* \"#utility.yul\":4440:4456   */\n      swap1\n      pop\n        /* \"#utility.yul\":4385:4462   */\n      swap2\n      swap1\n      pop\n      jump\t// out\n        /* \"#utility.yul\":4468:4561   */\n    tag_96:\n        /* \"#utility.yul\":4504:4511   */\n      0x00\n        /* \"#utility.yul\":4544:4554   */\n      0xffffffff\n        /* \"#utility.yul\":4537:4542   */\n      dup3\n        /* \"#utility.yul\":4533:4555   */\n      and\n        /* \"#utility.yul\":4522:4555   */\n      swap1\n      pop\n        /* \"#utility.yul\":4468:4561   */\n      swap2\n      swap1\n      pop\n      jump\t// out\n        /* \"#utility.yul\":4567:4653   */\n    tag_100:\n        /* \"#utility.yul\":4602:4609   */\n      0x00\n        /* \"#utility.yul\":4642:4646   */\n      0xff\n        /* \"#utility.yul\":4635:4640   */\n      dup3\n        /* \"#utility.yul\":4631:4647   */\n      and\n        /* \"#utility.yul\":4620:4647   */\n      swap1\n      pop\n        /* \"#utility.yul\":4567:4653   */\n      swap2\n      swap1\n      pop\n      jump\t// out\n        /* \"#utility.yul\":4659:4966   */\n    tag_86:\n        /* \"#utility.yul\":4727:4728   */\n      0x00\n        /* \"#utility.yul\":4737:4850   */\n    tag_116:\n        /* \"#utility.yul\":4751:4757   */\n      dup4\n        /* \"#utility.yul\":4748:4749   */\n      dup2\n        /* \"#utility.yul\":4745:4758   */\n      lt\n        /* \"#utility.yul\":4737:4850   */\n      iszero\n      tag_118\n      jumpi\n        /* \"#utility.yul\":4836:4837   */\n      dup1\n        /* \"#utility.yul\":4831:4834   */\n      dup3\n        /* \"#utility.yul\":4827:4838   */\n      add\n        /* \"#utility.yul\":4821:4839   */\n      mload\n        /* \"#utility.yul\":4817:4818   */\n      dup2\n        /* \"#utility.yul\":4812:4815   */\n      dup5\n        /* \"#utility.yul\":4808:4819   */\n      add\n        /* \"#utility.yul\":4801:4840   */\n      mstore\n        /* \"#utility.yul\":4773:4775   */\n      0x20\n        /* \"#utility.yul\":4770:4771   */\n      dup2\n        /* \"#utility.yul\":4766:4776   */\n      add\n        /* \"#utility.yul\":4761:4776   */\n      swap1\n      pop\n        /* \"#utility.yul\":4737:4850   */\n      jump(tag_116)\n    tag_118:\n        /* \"#utility.yul\":4868:4874   */\n      dup4\n        /* \"#utility.yul\":4865:4866   */\n      dup2\n        /* \"#utility.yul\":4862:4875   */\n      gt\n        /* \"#utility.yul\":4859:4960   */\n      iszero\n      tag_119\n      jumpi\n        /* \"#utility.yul\":4948:4949   */\n      0x00\n        /* \"#utility.yul\":4939:4945   */\n      dup5\n        /* \"#utility.yul\":4934:4937   */\n      dup5\n        /* \"#utility.yul\":4930:4946   */\n      add\n        /* \"#utility.yul\":4923:4950   */\n      mstore\n        /* \"#utility.yul\":4859:4960   */\n    tag_119:\n        /* \"#utility.yul\":4708:4966   */\n      pop\n        /* \"#utility.yul\":4659:4966   */\n      pop\n      pop\n      pop\n      jump\t// out\n        /* \"#utility.yul\":4972:5292   */\n    tag_24:\n        /* \"#utility.yul\":5016:5022   */\n      0x00\n        /* \"#utility.yul\":5053:5054   */\n      0x02\n        /* \"#utility.yul\":5047:5051   */\n      dup3\n        /* \"#utility.yul\":5043:5055   */\n      div\n        /* \"#utility.yul\":5033:5055   */\n      swap1\n      pop\n        /* \"#utility.yul\":5100:5101   */\n      0x01\n        /* \"#utility.yul\":5094:5098   */\n      dup3\n        /* \"#utility.yul\":5090:5102   */\n      and\n        /* \"#utility.yul\":5121:5139   */\n      dup1\n        /* \"#utility.yul\":5111:5192   */\n      tag_121\n      jumpi\n        /* \"#utility.yul\":5177:5181   */\n      0x7f\n        /* \"#utility.yul\":5169:5175   */\n      dup3\n        /* \"#utility.yul\":5165:5182   */\n      and\n        /* \"#utility.yul\":5155:5182   */\n      swap2\n      pop\n        /* \"#utility.yul\":5111:5192   */\n    tag_121:\n        /* \"#utility.yul\":5239:5241   */\n      0x20\n        /* \"#utility.yul\":5231:5237   */\n      dup3\n        /* \"#utility.yul\":5228:5242   */\n      lt\n        /* \"#utility.yul\":5208:5226   */\n      dup2\n        /* \"#utility.yul\":5205:5243   */\n      eq\n        /* \"#utility.yul\":5202:5286   */\n      iszero\n      tag_122\n      jumpi\n        /* \"#utility.yul\":5258:5276   */\n      tag_123\n      tag_124\n      jump\t// in\n    tag_123:\n        /* \"#utility.yul\":5202:5286   */\n    tag_122:\n        /* \"#utility.yul\":5023:5292   */\n      pop\n        /* \"#utility.yul\":4972:5292   */\n      swap2\n      swap1\n      pop\n      jump\t// out\n        /* \"#utility.yul\":5298:5478   */\n    tag_124:\n        /* \"#utility.yul\":5346:5423   */\n      0x4e487b7100000000000000000000000000000000000000000000000000000000\n        /* \"#utility.yul\":5343:5344   */\n      0x00\n        /* \"#utility.yul\":5336:5424   */\n      mstore\n        /* \"#utility.yul\":5443:5447   */\n      0x22\n        /* \"#utility.yul\":5440:5441   */\n      0x04\n        /* \"#utility.yul\":5433:5448   */\n      mstore\n        /* \"#utility.yul\":5467:5471   */\n      0x24\n        /* \"#utility.yul\":5464:5465   */\n      0x00\n        /* \"#utility.yul\":5457:5472   */\n      revert\n        /* \"#utility.yul\":5484:5601   */\n    tag_47:\n        /* \"#utility.yul\":5593:5594   */\n      0x00\n        /* \"#utility.yul\":5590:5591   */\n      dup1\n        /* \"#utility.yul\":5583:5595   */\n      revert\n        /* \"#utility.yul\":5607:5724   */\n    tag_44:\n        /* \"#utility.yul\":5716:5717   */\n      0x00\n        /* \"#utility.yul\":5713:5714   */\n      dup1\n        /* \"#utility.yul\":5706:5718   */\n      revert\n        /* \"#utility.yul\":5730:5847   */\n    tag_50:\n        /* \"#utility.yul\":5839:5840   */\n      0x00\n        /* \"#utility.yul\":5836:5837   */\n      dup1\n        /* \"#utility.yul\":5829:5841   */\n      revert\n        /* \"#utility.yul\":5853:5970   */\n    tag_69:\n        /* \"#utility.yul\":5962:5963   */\n      0x00\n        /* \"#utility.yul\":5959:5960   */\n      dup1\n        /* \"#utility.yul\":5952:5964   */\n      revert\n        /* \"#utility.yul\":5976:6093   */\n    tag_66:\n        /* \"#utility.yul\":6085:6086   */\n      0x00\n        /* \"#utility.yul\":6082:6083   */\n      dup1\n        /* \"#utility.yul\":6075:6087   */\n      revert\n        /* \"#utility.yul\":6099:6201   */\n    tag_88:\n        /* \"#utility.yul\":6140:6146   */\n      0x00\n        /* \"#utility.yul\":6191:6193   */\n      0x1f\n        /* \"#utility.yul\":6187:6194   */\n      not\n        /* \"#utility.yul\":6182:6184   */\n      0x1f\n        /* \"#utility.yul\":6175:6180   */\n      dup4\n        /* \"#utility.yul\":6171:6185   */\n      add\n        /* \"#utility.yul\":6167:6195   */\n      and\n        /* \"#utility.yul\":6157:6195   */\n      swap1\n      pop\n        /* \"#utility.yul\":6099:6201   */\n      swap2\n      swap1\n      pop\n      jump\t// out\n        /* \"#utility.yul\":6207:6329   */\n    tag_54:\n        /* \"#utility.yul\":6280:6304   */\n      tag_133\n        /* \"#utility.yul\":6298:6303   */\n      dup2\n        /* \"#utility.yul\":6280:6304   */\n      tag_92\n      jump\t// in\n    tag_133:\n        /* \"#utility.yul\":6273:6278   */\n      dup2\n        /* \"#utility.yul\":6270:6305   */\n      eq\n        /* \"#utility.yul\":6260:6323   */\n      tag_134\n      jumpi\n        /* \"#utility.yul\":6319:6320   */\n      0x00\n        /* \"#utility.yul\":6316:6317   */\n      dup1\n        /* \"#utility.yul\":6309:6321   */\n      revert\n        /* \"#utility.yul\":6260:6323   */\n    tag_134:\n        /* \"#utility.yul\":6207:6329   */\n      pop\n      jump\t// out\n        /* \"#utility.yul\":6335:6455   */\n    tag_58:\n        /* \"#utility.yul\":6407:6430   */\n      tag_136\n        /* \"#utility.yul\":6424:6429   */\n      dup2\n        /* \"#utility.yul\":6407:6430   */\n      tag_96\n      jump\t// in\n    tag_136:\n        /* \"#utility.yul\":6400:6405   */\n      dup2\n        /* \"#utility.yul\":6397:6431   */\n      eq\n        /* \"#utility.yul\":6387:6449   */\n      tag_137\n      jumpi\n        /* \"#utility.yul\":6445:6446   */\n      0x00\n        /* \"#utility.yul\":6442:6443   */\n      dup1\n        /* \"#utility.yul\":6435:6447   */\n      revert\n        /* \"#utility.yul\":6387:6449   */\n    tag_137:\n        /* \"#utility.yul\":6335:6455   */\n      pop\n      jump\t// out\n        /* \"#utility.yul\":6461:6579   */\n    tag_62:\n        /* \"#utility.yul\":6532:6554   */\n      tag_139\n        /* \"#utility.yul\":6548:6553   */\n      dup2\n        /* \"#utility.yul\":6532:6554   */\n      tag_100\n      jump\t// in\n    tag_139:\n        /* \"#utility.yul\":6525:6530   */\n      dup2\n        /* \"#utility.yul\":6522:6555   */\n      eq\n        /* \"#utility.yul\":6512:6573   */\n      tag_140\n      jumpi\n        /* \"#utility.yul\":6569:6570   */\n      0x00\n        /* \"#utility.yul\":6566:6567   */\n      dup1\n        /* \"#utility.yul\":6559:6571   */\n      revert\n        /* \"#utility.yul\":6512:6573   */\n    tag_140:\n        /* \"#utility.yul\":6461:6579   */\n      pop\n      jump\t// out\n\n    auxdata: 0xa2646970667358221220ebd3baaf450f20b66b8f2c1307a23dc5ec2f7c0d404f688767835a33fdadac8d64736f6c63430008070033\n}\n",
				"bytecode": {
					"linkReferences": {},
					"object": "608060405234801561001057600080fd5b506107b0806100206000396000f3fe608060405234801561001057600080fd5b50600436106100365760003560e01c80634f36e44e1461003b578063c85e766d14610057575b600080fd5b6100556004803603810190610050919061049f565b61008c565b005b610071600480360381019061006c9190610539565b610217565b604051610083969594939291906105cc565b60405180910390f35b610094610322565b86868080601f016020809104026020016040519081016040528093929190818152602001838380828437600081840152601f19601f82011690508083019250505050505050816020018190525084816040019063ffffffff16908163ffffffff168152505083816060019060ff16908160ff168152505082816080019060ff16908160ff1681525050818160a0019060ff16908160ff16815250506001819080600181540180825580915050600190039060005260206000209060030201600090919091909150600082015181600001556020820151816001019080519060200190610181929190610367565b5060408201518160020160006101000a81548163ffffffff021916908363ffffffff16021790555060608201518160020160046101000a81548160ff021916908360ff16021790555060808201518160020160056101000a81548160ff021916908360ff16021790555060a08201518160020160066101000a81548160ff021916908360ff160217905550505050505050505050565b6001818154811061022757600080fd5b9060005260206000209060030201600091509050806000015490806001018054610250906106aa565b80601f016020809104026020016040519081016040528092919081815260200182805461027c906106aa565b80156102c95780601f1061029e576101008083540402835291602001916102c9565b820191906000526020600020905b8154815290600101906020018083116102ac57829003601f168201915b5050505050908060020160009054906101000a900463ffffffff16908060020160049054906101000a900460ff16908060020160059054906101000a900460ff16908060020160069054906101000a900460ff16905086565b6040518060c001604052806000815260200160608152602001600063ffffffff168152602001600060ff168152602001600060ff168152602001600060ff1681525090565b828054610373906106aa565b90600052602060002090601f01602090048101928261039557600085556103dc565b82601f106103ae57805160ff19168380011785556103dc565b828001600101855582156103dc579182015b828111156103db5782518255916020019190600101906103c0565b5b5090506103e991906103ed565b5090565b5b808211156104065760008160009055506001016103ee565b5090565b60008083601f8401126104205761041f610710565b5b8235905067ffffffffffffffff81111561043d5761043c61070b565b5b60208301915083600182028301111561045957610458610715565b5b9250929050565b60008135905061046f81610735565b92915050565b6000813590506104848161074c565b92915050565b60008135905061049981610763565b92915050565b60008060008060008060a087890312156104bc576104bb61071f565b5b600087013567ffffffffffffffff8111156104da576104d961071a565b5b6104e689828a0161040a565b965096505060206104f989828a01610475565b945050604061050a89828a0161048a565b935050606061051b89828a0161048a565b925050608061052c89828a0161048a565b9150509295509295509295565b60006020828403121561054f5761054e61071f565b5b600061055d84828501610460565b91505092915050565b600061057182610634565b61057b818561063f565b935061058b818560208601610677565b61059481610724565b840191505092915050565b6105a881610650565b82525050565b6105b78161065a565b82525050565b6105c68161066a565b82525050565b600060c0820190506105e1600083018961059f565b81810360208301526105f38188610566565b905061060260408301876105ae565b61060f60608301866105bd565b61061c60808301856105bd565b61062960a08301846105bd565b979650505050505050565b600081519050919050565b600082825260208201905092915050565b6000819050919050565b600063ffffffff82169050919050565b600060ff82169050919050565b60005b8381101561069557808201518184015260208101905061067a565b838111156106a4576000848401525b50505050565b600060028204905060018216806106c257607f821691505b602082108114156106d6576106d56106dc565b5b50919050565b7f4e487b7100000000000000000000000000000000000000000000000000000000600052602260045260246000fd5b600080fd5b600080fd5b600080fd5b600080fd5b600080fd5b6000601f19601f8301169050919050565b61073e81610650565b811461074957600080fd5b50565b6107558161065a565b811461076057600080fd5b50565b61076c8161066a565b811461077757600080fd5b5056fea2646970667358221220ebd3baaf450f20b66b8f2c1307a23dc5ec2f7c0d404f688767835a33fdadac8d64736f6c63430008070033",
					"opcodes": "PUSH1 0x80 PUSH1 0x40 MSTORE CALLVALUE DUP1 ISZERO PUSH2 0x10 JUMPI PUSH1 0x0 DUP1 REVERT JUMPDEST POP PUSH2 0x7B0 DUP1 PUSH2 0x20 PUSH1 0x0 CODECOPY PUSH1 0x0 RETURN INVALID PUSH1 0x80 PUSH1 0x40 MSTORE CALLVALUE DUP1 ISZERO PUSH2 0x10 JUMPI PUSH1 0x0 DUP1 REVERT JUMPDEST POP PUSH1 0x4 CALLDATASIZE LT PUSH2 0x36 JUMPI PUSH1 0x0 CALLDATALOAD PUSH1 0xE0 SHR DUP1 PUSH4 0x4F36E44E EQ PUSH2 0x3B JUMPI DUP1 PUSH4 0xC85E766D EQ PUSH2 0x57 JUMPI JUMPDEST PUSH1 0x0 DUP1 REVERT JUMPDEST PUSH2 0x55 PUSH1 0x4 DUP1 CALLDATASIZE SUB DUP2 ADD SWAP1 PUSH2 0x50 SWAP2 SWAP1 PUSH2 0x49F JUMP JUMPDEST PUSH2 0x8C JUMP JUMPDEST STOP JUMPDEST PUSH2 0x71 PUSH1 0x4 DUP1 CALLDATASIZE SUB DUP2 ADD SWAP1 PUSH2 0x6C SWAP2 SWAP1 PUSH2 0x539 JUMP JUMPDEST PUSH2 0x217 JUMP JUMPDEST PUSH1 0x40 MLOAD PUSH2 0x83 SWAP7 SWAP6 SWAP5 SWAP4 SWAP3 SWAP2 SWAP1 PUSH2 0x5CC JUMP JUMPDEST PUSH1 0x40 MLOAD DUP1 SWAP2 SUB SWAP1 RETURN JUMPDEST PUSH2 0x94 PUSH2 0x322 JUMP JUMPDEST DUP7 DUP7 DUP1 DUP1 PUSH1 0x1F ADD PUSH1 0x20 DUP1 SWAP2 DIV MUL PUSH1 0x20 ADD PUSH1 0x40 MLOAD SWAP1 DUP2 ADD PUSH1 0x40 MSTORE DUP1 SWAP4 SWAP3 SWAP2 SWAP1 DUP2 DUP2 MSTORE PUSH1 0x20 ADD DUP4 DUP4 DUP1 DUP3 DUP5 CALLDATACOPY PUSH1 0x0 DUP2 DUP5 ADD MSTORE PUSH1 0x1F NOT PUSH1 0x1F DUP3 ADD AND SWAP1 POP DUP1 DUP4 ADD SWAP3 POP POP POP POP POP POP POP DUP2 PUSH1 0x20 ADD DUP2 SWAP1 MSTORE POP DUP5 DUP2 PUSH1 0x40 ADD SWAP1 PUSH4 0xFFFFFFFF AND SWAP1 DUP2 PUSH4 0xFFFFFFFF AND DUP2 MSTORE POP POP DUP4 DUP2 PUSH1 0x60 ADD SWAP1 PUSH1 0xFF AND SWAP1 DUP2 PUSH1 0xFF AND DUP2 MSTORE POP POP DUP3 DUP2 PUSH1 0x80 ADD SWAP1 PUSH1 0xFF AND SWAP1 DUP2 PUSH1 0xFF AND DUP2 MSTORE POP POP DUP2 DUP2 PUSH1 0xA0 ADD SWAP1 PUSH1 0xFF AND SWAP1 DUP2 PUSH1 0xFF AND DUP2 MSTORE POP POP PUSH1 0x1 DUP2 SWAP1 DUP1 PUSH1 0x1 DUP2 SLOAD ADD DUP1 DUP3 SSTORE DUP1 SWAP2 POP POP PUSH1 0x1 SWAP1 SUB SWAP1 PUSH1 0x0 MSTORE PUSH1 0x20 PUSH1 0x0 KECCAK256 SWAP1 PUSH1 0x3 MUL ADD PUSH1 0x0 SWAP1 SWAP2 SWAP1 SWAP2 SWAP1 SWAP2 POP PUSH1 0x0 DUP3 ADD MLOAD DUP2 PUSH1 0x0 ADD SSTORE PUSH1 0x20 DUP3 ADD MLOAD DUP2 PUSH1 0x1 ADD SWAP1 DUP1 MLOAD SWAP1 PUSH1 0x20 ADD SWAP1 PUSH2 0x181 SWAP3 SWAP2 SWAP1 PUSH2 0x367 JUMP JUMPDEST POP PUSH1 0x40 DUP3 ADD MLOAD DUP2 PUSH1 0x2 ADD PUSH1 0x0 PUSH2 0x100 EXP DUP2 SLOAD DUP2 PUSH4 0xFFFFFFFF MUL NOT AND SWAP1 DUP4 PUSH4 0xFFFFFFFF AND MUL OR SWAP1 SSTORE POP PUSH1 0x60 DUP3 ADD MLOAD DUP2 PUSH1 0x2 ADD PUSH1 0x4 PUSH2 0x100 EXP DUP2 SLOAD DUP2 PUSH1 0xFF MUL NOT AND SWAP1 DUP4 PUSH1 0xFF AND MUL OR SWAP1 SSTORE POP PUSH1 0x80 DUP3 ADD MLOAD DUP2 PUSH1 0x2 ADD PUSH1 0x5 PUSH2 0x100 EXP DUP2 SLOAD DUP2 PUSH1 0xFF MUL NOT AND SWAP1 DUP4 PUSH1 0xFF AND MUL OR SWAP1 SSTORE POP PUSH1 0xA0 DUP3 ADD MLOAD DUP2 PUSH1 0x2 ADD PUSH1 0x6 PUSH2 0x100 EXP DUP2 SLOAD DUP2 PUSH1 0xFF MUL NOT AND SWAP1 DUP4 PUSH1 0xFF AND MUL OR SWAP1 SSTORE POP POP POP POP POP POP POP POP POP POP JUMP JUMPDEST PUSH1 0x1 DUP2 DUP2 SLOAD DUP2 LT PUSH2 0x227 JUMPI PUSH1 0x0 DUP1 REVERT JUMPDEST SWAP1 PUSH1 0x0 MSTORE PUSH1 0x20 PUSH1 0x0 KECCAK256 SWAP1 PUSH1 0x3 MUL ADD PUSH1 0x0 SWAP2 POP SWAP1 POP DUP1 PUSH1 0x0 ADD SLOAD SWAP1 DUP1 PUSH1 0x1 ADD DUP1 SLOAD PUSH2 0x250 SWAP1 PUSH2 0x6AA JUMP JUMPDEST DUP1 PUSH1 0x1F ADD PUSH1 0x20 DUP1 SWAP2 DIV MUL PUSH1 0x20 ADD PUSH1 0x40 MLOAD SWAP1 DUP2 ADD PUSH1 0x40 MSTORE DUP1 SWAP3 SWAP2 SWAP1 DUP2 DUP2 MSTORE PUSH1 0x20 ADD DUP3 DUP1 SLOAD PUSH2 0x27C SWAP1 PUSH2 0x6AA JUMP JUMPDEST DUP1 ISZERO PUSH2 0x2C9 JUMPI DUP1 PUSH1 0x1F LT PUSH2 0x29E JUMPI PUSH2 0x100 DUP1 DUP4 SLOAD DIV MUL DUP4 MSTORE SWAP2 PUSH1 0x20 ADD SWAP2 PUSH2 0x2C9 JUMP JUMPDEST DUP3 ADD SWAP2 SWAP1 PUSH1 0x0 MSTORE PUSH1 0x20 PUSH1 0x0 KECCAK256 SWAP1 JUMPDEST DUP2 SLOAD DUP2 MSTORE SWAP1 PUSH1 0x1 ADD SWAP1 PUSH1 0x20 ADD DUP1 DUP4 GT PUSH2 0x2AC JUMPI DUP3 SWAP1 SUB PUSH1 0x1F AND DUP3 ADD SWAP2 JUMPDEST POP POP POP POP POP SWAP1 DUP1 PUSH1 0x2 ADD PUSH1 0x0 SWAP1 SLOAD SWAP1 PUSH2 0x100 EXP SWAP1 DIV PUSH4 0xFFFFFFFF AND SWAP1 DUP1 PUSH1 0x2 ADD PUSH1 0x4 SWAP1 SLOAD SWAP1 PUSH2 0x100 EXP SWAP1 DIV PUSH1 0xFF AND SWAP1 DUP1 PUSH1 0x2 ADD PUSH1 0x5 SWAP1 SLOAD SWAP1 PUSH2 0x100 EXP SWAP1 DIV PUSH1 0xFF AND SWAP1 DUP1 PUSH1 0x2 ADD PUSH1 0x6 SWAP1 SLOAD SWAP1 PUSH2 0x100 EXP SWAP1 DIV PUSH1 0xFF AND SWAP1 POP DUP7 JUMP JUMPDEST PUSH1 0x40 MLOAD DUP1 PUSH1 0xC0 ADD PUSH1 0x40 MSTORE DUP1 PUSH1 0x0 DUP2 MSTORE PUSH1 0x20 ADD PUSH1 0x60 DUP2 MSTORE PUSH1 0x20 ADD PUSH1 0x0 PUSH4 0xFFFFFFFF AND DUP2 MSTORE PUSH1 0x20 ADD PUSH1 0x0 PUSH1 0xFF AND DUP2 MSTORE PUSH1 0x20 ADD PUSH1 0x0 PUSH1 0xFF AND DUP2 MSTORE PUSH1 0x20 ADD PUSH1 0x0 PUSH1 0xFF AND DUP2 MSTORE POP SWAP1 JUMP JUMPDEST DUP3 DUP1 SLOAD PUSH2 0x373 SWAP1 PUSH2 0x6AA JUMP JUMPDEST SWAP1 PUSH1 0x0 MSTORE PUSH1 0x20 PUSH1 0x0 KECCAK256 SWAP1 PUSH1 0x1F ADD PUSH1 0x20 SWAP1 DIV DUP2 ADD SWAP3 DUP3 PUSH2 0x395 JUMPI PUSH1 0x0 DUP6 SSTORE PUSH2 0x3DC JUMP JUMPDEST DUP3 PUSH1 0x1F LT PUSH2 0x3AE JUMPI DUP1 MLOAD PUSH1 0xFF NOT AND DUP4 DUP1 ADD OR DUP6 SSTORE PUSH2 0x3DC JUMP JUMPDEST DUP3 DUP1 ADD PUSH1 0x1 ADD DUP6 SSTORE DUP3 ISZERO PUSH2 0x3DC JUMPI SWAP2 DUP3 ADD JUMPDEST DUP3 DUP2 GT ISZERO PUSH2 0x3DB JUMPI DUP3 MLOAD DUP3 SSTORE SWAP2 PUSH1 0x20 ADD SWAP2 SWAP1 PUSH1 0x1 ADD SWAP1 PUSH2 0x3C0 JUMP JUMPDEST JUMPDEST POP SWAP1 POP PUSH2 0x3E9 SWAP2 SWAP1 PUSH2 0x3ED JUMP JUMPDEST POP SWAP1 JUMP JUMPDEST JUMPDEST DUP1 DUP3 GT ISZERO PUSH2 0x406 JUMPI PUSH1 0x0 DUP2 PUSH1 0x0 SWAP1 SSTORE POP PUSH1 0x1 ADD PUSH2 0x3EE JUMP JUMPDEST POP SWAP1 JUMP JUMPDEST PUSH1 0x0 DUP1 DUP4 PUSH1 0x1F DUP5 ADD SLT PUSH2 0x420 JUMPI PUSH2 0x41F PUSH2 0x710 JUMP JUMPDEST JUMPDEST DUP3 CALLDATALOAD SWAP1 POP PUSH8 0xFFFFFFFFFFFFFFFF DUP2 GT ISZERO PUSH2 0x43D JUMPI PUSH2 0x43C PUSH2 0x70B JUMP JUMPDEST JUMPDEST PUSH1 0x20 DUP4 ADD SWAP2 POP DUP4 PUSH1 0x1 DUP3 MUL DUP4 ADD GT ISZERO PUSH2 0x459 JUMPI PUSH2 0x458 PUSH2 0x715 JUMP JUMPDEST JUMPDEST SWAP3 POP SWAP3 SWAP1 POP JUMP JUMPDEST PUSH1 0x0 DUP2 CALLDATALOAD SWAP1 POP PUSH2 0x46F DUP2 PUSH2 0x735 JUMP JUMPDEST SWAP3 SWAP2 POP POP JUMP JUMPDEST PUSH1 0x0 DUP2 CALLDATALOAD SWAP1 POP PUSH2 0x484 DUP2 PUSH2 0x74C JUMP JUMPDEST SWAP3 SWAP2 POP POP JUMP JUMPDEST PUSH1 0x0 DUP2 CALLDATALOAD SWAP1 POP PUSH2 0x499 DUP2 PUSH2 0x763 JUMP JUMPDEST SWAP3 SWAP2 POP POP JUMP JUMPDEST PUSH1 0x0 DUP1 PUSH1 0x0 DUP1 PUSH1 0x0 DUP1 PUSH1 0xA0 DUP8 DUP10 SUB SLT ISZERO PUSH2 0x4BC JUMPI PUSH2 0x4BB PUSH2 0x71F JUMP JUMPDEST JUMPDEST PUSH1 0x0 DUP8 ADD CALLDATALOAD PUSH8 0xFFFFFFFFFFFFFFFF DUP2 GT ISZERO PUSH2 0x4DA JUMPI PUSH2 0x4D9 PUSH2 0x71A JUMP JUMPDEST JUMPDEST PUSH2 0x4E6 DUP10 DUP3 DUP11 ADD PUSH2 0x40A JUMP JUMPDEST SWAP7 POP SWAP7 POP POP PUSH1 0x20 PUSH2 0x4F9 DUP10 DUP3 DUP11 ADD PUSH2 0x475 JUMP JUMPDEST SWAP5 POP POP PUSH1 0x40 PUSH2 0x50A DUP10 DUP3 DUP11 ADD PUSH2 0x48A JUMP JUMPDEST SWAP4 POP POP PUSH1 0x60 PUSH2 0x51B DUP10 DUP3 DUP11 ADD PUSH2 0x48A JUMP JUMPDEST SWAP3 POP POP PUSH1 0x80 PUSH2 0x52C DUP10 DUP3 DUP11 ADD PUSH2 0x48A JUMP JUMPDEST SWAP2 POP POP SWAP3 SWAP6 POP SWAP3 SWAP6 POP SWAP3 SWAP6 JUMP JUMPDEST PUSH1 0x0 PUSH1 0x20 DUP3 DUP5 SUB SLT ISZERO PUSH2 0x54F JUMPI PUSH2 0x54E PUSH2 0x71F JUMP JUMPDEST JUMPDEST PUSH1 0x0 PUSH2 0x55D DUP5 DUP3 DUP6 ADD PUSH2 0x460 JUMP JUMPDEST SWAP2 POP POP SWAP3 SWAP2 POP POP JUMP JUMPDEST PUSH1 0x0 PUSH2 0x571 DUP3 PUSH2 0x634 JUMP JUMPDEST PUSH2 0x57B DUP2 DUP6 PUSH2 0x63F JUMP JUMPDEST SWAP4 POP PUSH2 0x58B DUP2 DUP6 PUSH1 0x20 DUP7 ADD PUSH2 0x677 JUMP JUMPDEST PUSH2 0x594 DUP2 PUSH2 0x724 JUMP JUMPDEST DUP5 ADD SWAP2 POP POP SWAP3 SWAP2 POP POP JUMP JUMPDEST PUSH2 0x5A8 DUP2 PUSH2 0x650 JUMP JUMPDEST DUP3 MSTORE POP POP JUMP JUMPDEST PUSH2 0x5B7 DUP2 PUSH2 0x65A JUMP JUMPDEST DUP3 MSTORE POP POP JUMP JUMPDEST PUSH2 0x5C6 DUP2 PUSH2 0x66A JUMP JUMPDEST DUP3 MSTORE POP POP JUMP JUMPDEST PUSH1 0x0 PUSH1 0xC0 DUP3 ADD SWAP1 POP PUSH2 0x5E1 PUSH1 0x0 DUP4 ADD DUP10 PUSH2 0x59F JUMP JUMPDEST DUP2 DUP2 SUB PUSH1 0x20 DUP4 ADD MSTORE PUSH2 0x5F3 DUP2 DUP9 PUSH2 0x566 JUMP JUMPDEST SWAP1 POP PUSH2 0x602 PUSH1 0x40 DUP4 ADD DUP8 PUSH2 0x5AE JUMP JUMPDEST PUSH2 0x60F PUSH1 0x60 DUP4 ADD DUP7 PUSH2 0x5BD JUMP JUMPDEST PUSH2 0x61C PUSH1 0x80 DUP4 ADD DUP6 PUSH2 0x5BD JUMP JUMPDEST PUSH2 0x629 PUSH1 0xA0 DUP4 ADD DUP5 PUSH2 0x5BD JUMP JUMPDEST SWAP8 SWAP7 POP POP POP POP POP POP POP JUMP JUMPDEST PUSH1 0x0 DUP2 MLOAD SWAP1 POP SWAP2 SWAP1 POP JUMP JUMPDEST PUSH1 0x0 DUP3 DUP3 MSTORE PUSH1 0x20 DUP3 ADD SWAP1 POP SWAP3 SWAP2 POP POP JUMP JUMPDEST PUSH1 0x0 DUP2 SWAP1 POP SWAP2 SWAP1 POP JUMP JUMPDEST PUSH1 0x0 PUSH4 0xFFFFFFFF DUP3 AND SWAP1 POP SWAP2 SWAP1 POP JUMP JUMPDEST PUSH1 0x0 PUSH1 0xFF DUP3 AND SWAP1 POP SWAP2 SWAP1 POP JUMP JUMPDEST PUSH1 0x0 JUMPDEST DUP4 DUP2 LT ISZERO PUSH2 0x695 JUMPI DUP1 DUP3 ADD MLOAD DUP2 DUP5 ADD MSTORE PUSH1 0x20 DUP2 ADD SWAP1 POP PUSH2 0x67A JUMP JUMPDEST DUP4 DUP2 GT ISZERO PUSH2 0x6A4 JUMPI PUSH1 0x0 DUP5 DUP5 ADD MSTORE JUMPDEST POP POP POP POP JUMP JUMPDEST PUSH1 0x0 PUSH1 0x2 DUP3 DIV SWAP1 POP PUSH1 0x1 DUP3 AND DUP1 PUSH2 0x6C2 JUMPI PUSH1 0x7F DUP3 AND SWAP2 POP JUMPDEST PUSH1 0x20 DUP3 LT DUP2 EQ ISZERO PUSH2 0x6D6 JUMPI PUSH2 0x6D5 PUSH2 0x6DC JUMP JUMPDEST JUMPDEST POP SWAP2 SWAP1 POP JUMP JUMPDEST PUSH32 0x4E487B7100000000000000000000000000000000000000000000000000000000 PUSH1 0x0 MSTORE PUSH1 0x22 PUSH1 0x4 MSTORE PUSH1 0x24 PUSH1 0x0 REVERT JUMPDEST PUSH1 0x0 DUP1 REVERT JUMPDEST PUSH1 0x0 DUP1 REVERT JUMPDEST PUSH1 0x0 DUP1 REVERT JUMPDEST PUSH1 0x0 DUP1 REVERT JUMPDEST PUSH1 0x0 DUP1 REVERT JUMPDEST PUSH1 0x0 PUSH1 0x1F NOT PUSH1 0x1F DUP4 ADD AND SWAP1 POP SWAP2 SWAP1 POP JUMP JUMPDEST PUSH2 0x73E DUP2 PUSH2 0x650 JUMP JUMPDEST DUP2 EQ PUSH2 0x749 JUMPI PUSH1 0x0 DUP1 REVERT JUMPDEST POP JUMP JUMPDEST PUSH2 0x755 DUP2 PUSH2 0x65A JUMP JUMPDEST DUP2 EQ PUSH2 0x760 JUMPI PUSH1 0x0 DUP1 REVERT JUMPDEST POP JUMP JUMPDEST PUSH2 0x76C DUP2 PUSH2 0x66A JUMP JUMPDEST DUP2 EQ PUSH2 0x777 JUMPI PUSH1 0x0 DUP1 REVERT JUMPDEST POP JUMP INVALID LOG2 PUSH5 0x6970667358 0x22 SLT KECCAK256 0xEB 0xD3 0xBA 0xAF GASLIMIT 0xF KECCAK256 0xB6 PUSH12 0x8F2C1307A23DC5EC2F7C0D40 0x4F PUSH9 0x8767835A33FDADAC8D PUSH5 0x736F6C6343 STOP ADDMOD SMOD STOP CALLER "
				},
				"gasEstimates": {
					"creation": {
						"codeDepositCost": "393600",
						"executionCost": "430",
						"totalCost": "394030"
					},
					"external": {
						"addMedicine(string,uint32,uint8,uint8,uint8)": "infinite",
						"medicines(uint256)": "infinite"
					}
				},
				"methodIdentifiers": {
					"addMedicine(string,uint32,uint8,uint8,uint8)": "4f36e44e",
					"medicines(uint256)": "c85e766d"
				}
			},
			"storageLayout": {
				"storage": [
					{
						"astId": 40,
						"contract": "contracts/Medicine.sol:Prescription",
						"label": "patients",
						"offset": 0,
						"slot": "0",
						"type": "t_mapping(t_address,t_struct(Patient)22_storage)"
					},
					{
						"astId": 44,
						"contract": "contracts/Medicine.sol:Prescription",
						"label": "medicines",
						"offset": 0,
						"slot": "1",
						"type": "t_array(t_struct(Medicine)35_storage)dyn_storage"
					}
				],
				"types": {
					"t_address": {
						"encoding": "inplace",
						"label": "address",
						"numberOfBytes": "20"
					},
					"t_array(t_struct(Medicine)35_storage)dyn_storage": {
						"base": "t_struct(Medicine)35_storage",
						"encoding": "dynamic_array",
						"label": "struct Prescription.Medicine[]",
						"numberOfBytes": "32"
					},
					"t_mapping(t_address,t_struct(Patient)22_storage)": {
						"encoding": "mapping",
						"key": "t_address",
						"label": "mapping(address => struct Prescription.Patient)",
						"numberOfBytes": "32",
						"value": "t_struct(Patient)22_storage"
					},
					"t_string_storage": {
						"encoding": "bytes",
						"label": "string",
						"numberOfBytes": "32"
					},
					"t_struct(Medicine)35_storage": {
						"encoding": "inplace",
						"label": "struct Prescription.Medicine",
						"members": [
							{
								"astId": 24,
								"contract": "contracts/Medicine.sol:Prescription",
								"label": "ID",
								"offset": 0,
								"slot": "0",
								"type": "t_uint256"
							},
							{
								"astId": 26,
								"contract": "contracts/Medicine.sol:Prescription",
								"label": "name",
								"offset": 0,
								"slot": "1",
								"type": "t_string_storage"
							},
							{
								"astId": 28,
								"contract": "contracts/Medicine.sol:Prescription",
								"label": "quantity",
								"offset": 0,
								"slot": "2",
								"type": "t_uint32"
							},
							{
								"astId": 30,
								"contract": "contracts/Medicine.sol:Prescription",
								"label": "dosing",
								"offset": 4,
								"slot": "2",
								"type": "t_uint8"
							},
							{
								"astId": 32,
								"contract": "contracts/Medicine.sol:Prescription",
								"label": "strength",
								"offset": 5,
								"slot": "2",
								"type": "t_uint8"
							},
							{
								"astId": 34,
								"contract": "contracts/Medicine.sol:Prescription",
								"label": "duration",
								"offset": 6,
								"slot": "2",
								"type": "t_uint8"
							}
						],
						"numberOfBytes": "96"
					},
					"t_struct(Patient)22_storage": {
						"encoding": "inplace",
						"label": "struct Prescription.Patient",
						"members": [
							{
								"astId": 19,
								"contract": "contracts/Medicine.sol:Prescription",
								"label": "ID",
								"offset": 0,
								"slot": "0",
								"type": "t_uint256"
							},
							{
								"astId": 21,
								"contract": "contracts/Medicine.sol:Prescription",
								"label": "prescriptionOwner",
								"offset": 0,
								"slot": "1",
								"type": "t_address"
							}
						],
						"numberOfBytes": "64"
					},
					"t_uint256": {
						"encoding": "inplace",
						"label": "uint256",
						"numberOfBytes": "32"
					},
					"t_uint32": {
						"encoding": "inplace",
						"label": "uint32",
						"numberOfBytes": "4"
					},
					"t_uint8": {
						"encoding": "inplace",
						"label": "uint8",
						"numberOfBytes": "1"
					}
				}
			},
			"userdoc": {
				"kind": "user",
				"methods": {},
				"version": 1
			}
		}
	}
}